:0200000470107A
:1000000053544D32000000000000000000000000CA
:1000100000000000000000000000000000000000E0
:1000200000000000000000000000000000000000D0
:1000300000000000000000000000000000000000C0
:1000400000000000000000000000000000000000B0
:1000500000000000000000000000000000000000A0
:1000600000000000BD68460300030200C0B60700A0
:10007000097A023400000000FFFFFFFF00000000CB
:100080000000000000000080A0010000000000004F
:100090000000000000000000000000000000000060
:1000A0005354FFFFA00100006238309BC11D17149C
:1000B0005647F9AF7DF77A1D24ADEFD17F9B17A589
:1000C000F79A616FC5CAB7B47B49F619FF4C6E1435
:1000D000773A8EC41F826CAC0C70F1A6CC1E94D5FE
:1000E000ED65EE312674C2713EA79D85E1F861D7BA
:1000F0000ECC157F739D5497F07B4597C7E2791816
:100100001588F70513003A0A36531D7C46D5664616
:1001100099ADFECD0CD711D9B40E419A5DBD329B7D
:100120006FEE5A431B5D7157AFE073252DAEC1458D
:10013000CFC60A7A65CD687AB7114591F130951826
:100140000DEE565BD5A88742178E318A5FCB2F17ED
:10015000CEF1A31FCCF23B64AC6D4EE02E05D2A8CD
:10016000E495D637CFCADE5B0D19FBD080F7A0CF60
:1001700028500E8399B3EDE30BC0122CFE29EE4EEE
:1001800048A4C6CA480C30795347E4857DEA006329
:10019000711787EA99AABE80406AF2586CA6B053DC
:1001A00085B1465EA3CB476F1430A4EF9A63E7583E
:1001B0005EAA9FB74FBBECA1412D1CD60B099E51E7
:1001C000390E32620A65F6EC8A1D68818FE5662277
:1001D0001333C039B113D15810BB1106DEE1409C76
:1001E0005D7E8E770703D923A1F1DC85F05C68CEB4
:1001F00085D041C9FFC42605AE505BB031FC5B061B
:10020000A9EC68E81F71F857BFAD84395FB810E3F7
:10021000BA5278C802FAF2691AAB46A3D22074F334
:10022000F9A9E6FEB3AEA4CB0C8B5BEBE45A160542
:100230007D519620017857E21E7787840251B6439C
:1002400000000000000000000000000000000000AE
:10025000000000000000000000000000000000009E
:10026000000000000000000000000000000000008E
:10027000000000000000000000000000000000007E
:10028000000000000000000000000000000000006E
:10029000000000000000000000000000000000005E
:1002A000000000000000000000000000000000004E
:1002B000000000000000000000000000000000003E
:1002C000000000000000000000000000000000002E
:1002D000000000000000000000000000000000001E
:1002E000000000000000000000000000000000000E
:1002F00000000000000000000000000000000000FE
:1003000000000000000000000000000000000000ED
:1003100000000000000000000000000000000000DD
:1003200000000000000000000000000000000000CD
:1003300000000000000000000000000000000000BD
:1003400000000000000000000000000000000000AD
:10035000000000000000000000000000000000009D
:10036000000000000000000000000000000000008D
:10037000000000000000000000000000000000007D
:10038000000000000000000000000000000000006D
:10039000000000000000000000000000000000005D
:1003A000000000000000000000000000000000004D
:1003B000000000000000000000000000000000003D
:1003C000000000000000000000000000000000002D
:1003D000000000000000000000000000000000001D
:1003E000000000000000000000000000000000000D
:1003F00000000000000000000000000000000000FD
:1004000000001B34097A0234193B0034657A023447
:100410001B3B00341D3B0034657A02341F3B003423
:10042000000000000000000000000000F1C00134E6
:10043000213B00340000000081C00134B1BD013413
:10044000657A023400000000657A0234657A02346D
:10045000657A0234657A0234657A0234657A023448
:10046000657A023400000000657A0234657A02344D
:10047000657A0234DD250034657A0234000000001C
:10048000657A023400000000657A0234657A02342D
:10049000657A0234657A0234657A0234657A023408
:1004A000657A0234657A0234657A0234657A0234F8
:1004B000657A0234657A0234657A0234657A0234E8
:1004C000657A0234657A0234657A0234657A0234D8
:1004D000657A0234657A0234657A0234657A0234C8
:1004E000657A023400000000657A0234657A0234CD
:1004F000657A0234657A0234657A0234233B00342B
:10050000313B00340000000000000000000000004B
:10051000657A0234D9420134657A0234657A02344C
:10052000657A0234657A0234657A0234657A023477
:10053000DD340034657A023489C40134657A0234CA
:10054000657A0234657A0234657A0234657A023457
:10055000657A0234657A0234657A0234657A023447
:10056000657A0234657A0234657A0234657A023437
:10057000657A0234657A0234657A0234657A023427
:10058000657A0234657A0234657A0234657A023417
:10059000657A0234657A0234657A0234657A023407
:1005A000657A0234657A0234657A0234657A0234F7
:1005B000657A0234657A0234657A0234657A0234E7
:1005C000657A0234657A0234657A0234657A0234D7
:1005D000657A0234657A0234657A0234657A0234C7
:1005E000657A0234657A0234657A0234657A0234B7
:1005F000657A0234657A0234657A0234657A0234A7
:10060000657A0234657A0234657A0234657A023496
:10061000657A0234657A0234657A0234657A023486
:10062000657A0234657A0234657A0234657A023476
:10063000657A0234657A0234657A0234657A023466
:10064000657A0234657A0234657A0234657A023456
:10065000657A0234657A0234657A0234657A023446
:10066000657A0234657A0234657A0234657A023436
:10067000657A0234657A0234657A0234657A023426
:10068000657A0234657A0234657A0234657A023416
:10069000657A0234657A0234657A0234657A023406
:1006A000657A0234657A0234657A0234657A0234F6
:1006B000657A0234657A0234657A0234657A0234E6
:1006C000657A0234657A0234657A0234657A0234D6
:1006D000657A0234657A0234657A0234657A0234C6
:1006E000657A0234657A0234657A0234657A0234B6
:1006F000657A0234657A0234657A0234657A0234A6
:10070000657A02343F3B0034657A0234657A0234FC
:10071000657A0234657A0234657A0234657A023485
:10072000657A0234657A0234657A0234657A023475
:10073000657A0234657A0234657A0234657A023465
:1007400000000000657A0234657A0234000000007F
:1007500010B5054C237833B9044B13B10448AFF3FB
:1007600000800123237010BD00B907340000000091
:1007700080C8023408B5034B1BB103490348AFF3EB
:10078000008008BD0000000004B9073480C80234AE
:10079000034613F8012B002AFBD1181A01387047C1
:1007A00090EDAD5A30B52DED108B90EDA87BB5EEE8
:1007B000C05A89B08DED007BF1EE10FA90EDA47B6C
:1007C000044691ED014A91ED002A91ED02FB91ED75
:1007D00004EB90ED123B90EDAACB90ED16BB8DEDA6
:1007E000047B90EDA66B09DCD0F8C832D648984758
:1007F0004FF0FF3009B0BDEC108B30BDB8EE444B6C
:100800009FEDC37BB8EE422B24EE077BB4EEC27B98
:10081000F1EE10FA0FDD90ED1C7B9FEDBF1B37EE64
:10082000011B9FEDBF7BB4EEC71BF1EE10FA37FE44
:10083000017B80ED1C7B9FEDBC7B24EE074BB4EE6F
:10084000C24BF1EE10FA10D594ED1C7B9FEDB24B2C
:1008500037EE447B9FEDB64BB4EEC47BF1EE10FA5D
:1008600058BFB0EE474B84ED1C4B94F85050B7EE98
:10087000C55A012D64D19FEDB07B3FEE4E4B84EE07
:1008800007DB3FEE0E4B84EE07ABB0EECD7BB4EE54
:10089000C75BF1EE10FAB0EECA4B3CDBB4EEC45BC2
:1008A000F1EE10FA37DB002384F8783083EE0C9BEE
:1008B000BCEEC99BB8EE499B29EE0C9B0022FCEED6
:1008C000C95BB0EE498BCDED035A84F86020002B54
:1008D00000F08C80F7EECB0BB7EEC70B8DED066BFF
:1008E0002BF06AFEB2EE047BB7EEC00AB0EECE5B30
:1008F00020EE070BB0EECF7BB4EEC57BF1EE10FA25
:100900009DED066B34DDB5EEC0FBF1EE10FA34D58B
:1009100039EE400B33E0B4EEC45BF1EE10FA25D5AE
:100920008AEE0D4B94EDAE5AB0EEC44BB7EEC55AFD
:10093000B4EEC54BF1EE10FAB4BF01230023B5E7C6
:10094000B0EECF7BB0EECE4BB4EE474BF1EE10FAEB
:1009500034FE077BB4EEC57B9FED79ABF1EE10FA68
:10096000B0EE4ADB8CBF012300239FE701239DE704
:10097000B5EEC0EBF1EE10FACAD539EE000B94EDEE
:100980003C7BB4EEC07BF1EE10FA03D5B0EE46BB73
:10099000B0EE470B94ED3A7BB4EEC07BF1EE10FA6B
:1009A00003DDB0EE46BBB0EE470B80EE0C8BBCEE29
:1009B000C88BB8EE488B012D2CEE088B16D1B4F8FD
:1009C000E030022B5FD8FCEEC97BB8EE677B04EB0E
:1009D000C30282ED207B82ED268B04EB03120133F0
:1009E00082ED2CDB82ED2EABA4F8E03094F8783069
:1009F0004BBB102204F1880104F180008DED066BE1
:100A000028F02EF9102204F1A00104F1980028F03A
:100A100027F9D4E9302384ED249BC4E92C23D4E9BD
:100A2000322384ED2A8BC4E92E23D4E934239DEDAF
:100A3000066BC4E93023D4E9362384ED34DB84ED3E
:100A400036ABC4E93223FCEEC87B17EE903A94ED46
:100A50001A7B039AB5EEC07B93421CBF012384F836
:100A60006030F1EE10FA71DD012384F860309DED05
:100A7000007BB4EEC7BBF1EE10FA79D59DED047B97
:100A80003BEE076B66E094ED2A7B94EDAF5A38EEAF
:100A9000477BB7EEC55AB0EEC77BB4EEC57BF1EE2F
:100AA00010FA2CDB94ED287B38EE477BB0EEC77B49
:100AB000B4EEC75BF1EE10FA21DD94ED320B94ED4C
:100AC000307B3AEE400B3DEE477B20EE000BA7EE6D
:100AD000070B8DED066B2BF037FD94EDB07AB7EE7A
:100AE000C77AB4EEC70BF1EE10FA9DED066B06D592
:100AF000FCEEC97B84F87850B8EE678B76E794F803
:100B00007830012B04BF002384F878306EE700BFF3
:100B10009A9999999999A93F7B14AE47E17A843FB4
:100B2000343333333333C33F333333333333C33F5C
:100B3000111111111111B13FCD3B7F669EA0F63FFF
:100B40000000000000000000A8AB073494F86030FB
:100B5000002B8CD188EE0C7BBCEEC77BB8EE477BBC
:100B600027EE0C7B84ED166B84ED127B012041E6B1
:100B70009DED006BEEE790ED1A6BB5EEC06B90ED5E
:100B8000124BF1EE10FA90EDAA5BB0EE467BDFBFA0
:100B900084EE057BBCEEC77BB8EE477B27EE057B7A
:100BA000B7EEC77B90ED3C5BB7EEC74AB4EEC54BE2
:100BB000F1EE10FAC8BFB7EEC57B90ED3A5BB7EE29
:100BC000C74AB4EEC54BF1EE10FA48BFB7EEC57B8D
:100BD000B7EEC75AD0F8743230B580ED125B93EDA2
:100BE000005AD0EDAC7AB4EEC75AF1EE675AF1EE86
:100BF00010FA4FF00001B0F8F83075FEA77A013B0B
:100C00008AB2934205D8442202FB030303F5907392
:100C100011E000EB8204D4ED445A77EEA55AF4EECD
:100C2000C75AF1EE10FA01F10101E9DB442303FB9D
:100C3000020202F59073B5EEC06BF1EE10FAC0F847
:100C4000743205DC93ED007AB7EEC77A80ED127B43
:100C50005A6803F1380142609A6803F12404826003
:100C6000DA68C2601A69026100F138025D690C330A
:100C70004561DD680C30C5601D69A342056151F80E
:100C8000045B42F8045BF1D1012030BD10B504468D
:100C900090B070B10023084C40212370C4F8C80202
:100CA000064B6846064A2BF01BFC6846D4F8C8324F
:100CB0009847204610B010BD20B9073470B30734F0
:100CC000E8AB0734002814BF01204FF0FF30704715
:100CD00080ED000A30B50C6844604C6884608C6814
:100CE000C460C96802F12404016100F1380115688B
:100CF0000C32456152F8085C0C30C56052F8045C57
:100D0000A242056153F8045B41F8045BEFD130BDAA
:100D10002DE9F04F2DED068B0E46B0EE409BB0EE68
:100D2000418B1D460446C7B0002800F08F819FED1F
:100D3000CCAB80ED12AB0020CF494FF00008C4E9E6
:100D40001601C4E9A601C4E9AA01CC49DFF8609301
:100D5000C4F8B0124FF07E51C4F8B4124FF07C5179
:100D6000C4E91A890FF20039D9E90089C4E91C895C
:100D7000C4E9A4894FF00008C4F8B812C049DFF8EC
:100D80003493C4F8BC124FF07F510023C4E9A88902
:100D900001274FF00008C4F8C012711EDFF8189345
:100DA00088B20428C4E9A0890FF2C429D9E90089CE
:100DB00084F86030C4E9A289A4F8E03084F878307F
:100DC000A4F8787214D905234FF48071AD4A06A8AF
:100DD0002BF086FBD4F8C83206A8984784F85070E8
:100DE000204647B0BDEC068BBDE8F04FFFF7C3BE11
:100DF00095ED007AB7EEC77AB4EEC70BF1EE10FAB4
:100E000012DDD4F8C832A048984795ED007AB7EEC5
:100E1000C77A8DED009B8DED027B9C4A4FF480716B
:100E200006A82BF05DFBD5E74FF0440C0CFB0658F1
:100E300018ED117AB7EEC77AB4EEC71BF1EE10FACF
:100E400041D5D4F8C8329248984798ED007AB7EE69
:100E5000C77A8DED008B8DED027B8E4ADEE70CFBB1
:100E600008F705EB070944372F4499ED007AD7EDD1
:100E7000007AB4EEE77AF1EE10FA08F1010A00F117
:100E8000010021DBD4F8C8328348984797ED007AF7
:100E9000B7EEC77A8DED047BCDF808A099ED007A06
:100EA000B7EEC77A43468DED007B7C4A4FF48071E4
:100EB00006A82BF015FBD4F8C83206A898470123E2
:100EC00084F850308CE718461FFA80F84145C6D8A0
:100ED00000234FF0440CB01E9FB2B94239D884EDC4
:100EE0003A9B84ED3C8B0020A4F8F86083B29942D1
:100EF00000F1010000F28B800027B84604F1FC0AE3
:100F000004F5907905EB070B09EB070044225946DD
:100F10001BF084F9DBF8003008F101084AF8043BC3
:100F20001FFA88F39E4207F14407EBD8731E9BB269
:100F3000002E03F1010314BF1A460122C4F8749273
:100F400004F5B271013A6AD1012384F8503023705C
:100F500046E702EB8709B842D9ED007A4FEA8708E5
:100F600007F1010A1ED908F10408904498ED007AAF
:100F7000B4EEE77AF1EE10FA14D8D4F8C832484843
:100F8000984798ED007AB7EEC77A8DED047BCDF8DF
:100F900008A099ED007AB7EEC77A3B468DED007B4D
:100FA000404A83E70CFB07F805EB080A9AED007A44
:100FB000B4EEE77AF1EE10FA08F14408A84408DA32
:100FC00098ED007AB4EEE77AF1EE10FA03F101033E
:100FD00082D8D4F8C8323448984798ED007AB7EEF2
:100FE000C77A8DED047B9AED007AB7EEC77A8DED66
:100FF000027B99ED007AB7EEC77A3B468DED007B18
:101000004FF48071294A06A82BF06AFA53E702EBE5
:1010100083073F6804EB8303C3F8107166E7D4F8D5
:10102000743291ED006A93ED007AB7EEC66AB7EEBE
:10103000C77A36EE4A6B37EE4A7BB4EEC76BF1EEF9
:1010400010FA48BFC4F8741244317BE74FF0FF3008
:1010500047B0BDEC068BBDE8F08F00BFAFF300805A
:10106000000000000088B3409A9999999999B93F76
:101070000000000000A06E400000F03F0000484269
:1010800000002F43F8AB07343CAC0734C3AC073443
:1010900021AD0734A9AD073406AE07346AAE073474
:1010A000C2AE073431AF07349BAF0734F2AF073419
:1010B0000000F0BF000008400000244030B50546A5
:1010C00014468DB052B9D0F8C8321D489847D5F8AB
:1010D000C8321C48984720460DB030BD93ED042B14
:1010E00093ED021B93ED000B0AAA08A906A800F0D5
:1010F0002FF8DDE90823CDE90223DDE90A23CDE954
:101100000423012398420446CDE90033DFD1694628
:101110002846FFF745FB0128044603D0D5F8C8321E
:101120000948D7E795F86030012BD4D12846FFF75E
:1011300022FD01280446CED0D5F8C8320348C9E7BD
:1011400078B00734D9B0073402B1073436B1073468
:10115000B5EEC00BF1EE10FA1FB509D4B5EEC01B09
:10116000F1EE10FA04D4B5EEC02BF1EE10FA0DD565
:101170008DED022B8DED001B53EC102B444827F016
:10118000EFFB4FF0FF3005B05DF804FB9FED327BC5
:10119000B4EEC70BF1EE10FA09DCB4EEC71BF1EEAA
:1011A00010FA04DCB4EEC72BF1EE10FA07DD8DED7A
:1011B000022B8DED001B53EC102B3648DFE728B1D6
:1011C00089B1B2B93449354B084607E071B13349AA
:1011D0003148002A304A314B18BF13460246304886
:1011E00027F0BEFBCDE72C492C48F2E72B490846F7
:1011F000EFE79FED1B7B9FED1C6B21EE077BB3EEB2
:10120000005BA0EE067B9FED1A6BA2EE057BA7EEBE
:10121000065B9FED197B80ED005B27EE417BBBEE0B
:101220000A5BA0EE057B9FED165BA2EE057B27EE29
:10123000067B81ED007B9FED147B27EE411BB2EE18
:10124000047BA0EE051BA2EE471B21EE061B01202E
:1012500082ED001B97E700BF0000000000E06F4038
:101260000000000000A06340000000000080474034
:10127000000000000000703F0000000000805540AA
:101280000000000000005C400000000000805940A9
:101290006BB10734A9B10734613C06345F3C0634B6
:1012A000E9B10734000000002DE9F0419846436D94
:1012B0000F460646069923B9C8F800700A60BDE8D3
:1012C000F081214D5B00B5FBF3F59542F4D2B2FB02
:1012D000F5F407EE902A04FB0554B8EE677A07EEA2
:1012E000904ADFED1A6AF8EE677A67EEA67AB4EEF6
:1012F000E77AF1EE10FADFD5621B0A60013207EEE1
:10130000902AF8EE677A87EE270AB7EEC00A29F02E
:101310007BFD9FED0B7B20EE070BBCEEC00B10EEB0
:10132000103A3B441F46C8F80030F36CBB4294BFF0
:10133000C8F80030C8F80070C1E700BFAFF3008004
:10134000000000000088D34040420F003333733F59
:1013500007EE901A9FED287AF8EE677A70B587EE5F
:10136000871A2DED028B08EE102AB7EEC11AB2EEE5
:10137000040B05461C46069E29F02EFEB8EE488B4F
:1013800028EE000BFCEEC07B17EE902A696CB8EEDD
:10139000677A914216D900232360C6ED007A6B6C00
:1013A000DFED166A07EE903AF8EE677A67EEA67AF6
:1013B000B4EE677AF1EE10FAC8BF1A463260BDEC9F
:1013C000028B70BD07EE901AF8EE677A87EE270A57
:1013D0003160B7EEC00A29F017FD9FED057B20EEC6
:1013E000070BBCEEC00B84ED000AE8E7AFF300800A
:1013F000000000000088D34000409C4648E17A3F4E
:1014000010B5044690B060B10023074C4021237012
:10141000A065064B6846064A2BF062F86846A36D45
:101420009847204610B010BDF0BB073476B30734A0
:1014300033B20734002814BF01204FF0FF3070474B
:1014400038220A23C0E9042364222D237821C0E92D
:10145000062340F2DC5330B5C0E9081341F2707442
:1014600042F6E063C0E90A430BA5D5E90045052330
:1014700048F2E80103650023C0E910310121C0E909
:101480000C4507A5D5E90045C0E91212C0E90E4593
:10149000436530BDAFF3008000000040E17A943F27
:1014A000000000E04D62703F10B5044620B1FFF728
:1014B000C7FF0120207010BD4FF0FF30FBE72DE982
:1014C000F04F15469B46044687B0002800F0238164
:1014D0000378012B1AD102230370D4F85480B8F199
:1014E000000F17D0904B4FEA4802B3FBF2F3A66C03
:1014F0008E4211D2626CAA420ED9B5FBF3F203FB05
:1015000012534BB1C4E90156012006E1022BE4D08D
:10151000002002E10123EAE70DF114092A4604AB99
:101520002046CDF800900391FFF712FFDDE9047229
:10153000D4F810C0B6EE005B07EE90CAB8EE676A4A
:1015400007EE90BAB8EEE77BB7EEC66A37EE057BDA
:1015500086EE070B236DB7EEC00B9B45039948D26F
:10156000F0EE007AB4EEE70AF1EE10FA41D4616CC5
:10157000B7EE007A8A4220D2012A134638BF0123EF
:1015800007EE903AF8EEE77A67EE807AFDEEE77ABA
:1015900017EE903A8B42C1BF07EE901AB8EEE76A99
:1015A00007EE902AF8EE676AC3BFC6EE267A0B46AE
:1015B00080EE270AB0EE470A6360B4EEC70AF1EE88
:1015C00010FAA1DDB7EEC00A29F01EFCB3EE047BD1
:1015D00020EE070B9FED527B20EE070BBDEEC00BFC
:1015E00010EE103AE26C3B449342D4BFA360A26079
:1015F0008AE7ACEB0B0383EAE37EAEEBE37E039377
:10160000E3699E4559D8D4F824E00398A36943437D
:10161000606900EB0C0ADA45DFF814A155D207EE39
:1016200090EA9FED427AF8EEE77A67EE877A07EE66
:10163000103AF1EE676AB8EEC77AB4EEE67AF1EEE8
:1016400010FA04D5FDEEE77A17EE903A5B42002BD4
:1016500050D0BE4244D1616C8A4201D3002B3FDAA4
:10166000039807EE902A02FB000006EE900A002B7A
:10167000B8EEE77BB8EEE66B2FDA94ED0E5BA5EEE5
:10168000067BBDEEC77B17EE102A236CA7609A423B
:10169000B8BF1A468A42D4BF626061602046CDF866
:1016A000009004ABD4E90121FFF7FEFD049B059DEA
:1016B000A3606560CAF8608026E7236A9E452CBF58
:1016C000D4F82CE0D4F828E09FE7ACEB000CDC4524
:1016D00010DD7345A8BF7346B9E794ED0C5BCEE708
:1016E0001F44BE4203DCE66CBE42A8BF3E46C4E9CE
:1016F0000126D3E7DAF8603098450AD02A4620461A
:10170000CDF8009004ABB8F1000FCDD1FFF720FE6B
:10171000CCE7A160CDE74FF0FF3007B0BDE8F08F18
:101720000000000000408F4040420F009A99593F4E
:10173000F0BB073481F0004102E000BF83F00043BA
:1017400030B54FEA41044FEA430594EA050F08BF5C
:1017500090EA020F1FBF54EA000C55EA020C7FEA20
:10176000645C7FEA655C00F0E2804FEA5454D4EB9D
:101770005555B8BF6D420CDD2C4480EA020281EA67
:10178000030382EA000083EA010180EA020281EA9F
:101790000303362D88BF30BD11F0004F4FEA0131F1
:1017A0004FF4801C4CEA113102D0404261EB410100
:1017B00013F0004F4FEA03334CEA133302D0524286
:1017C00063EB430394EA050F00F0A780A4F1010442
:1017D000D5F1200E0DDB02FA0EFC22FA05F280187C
:1017E00041F1000103FA0EF2801843FA05F3594162
:1017F0000EE0A5F120050EF1200E012A03FA0EFCE1
:1018000028BF4CF0020C43FA05F3C01851EBE3710A
:1018100001F0004507D54FF0000EDCF1000C7EEB27
:1018200000006EEB0101B1F5801F1BD3B1F5001F65
:101830000CD349085FEA30004FEA3C0C04F1010484
:101840004FEA445212F5800F80F09A80BCF1004FAD
:1018500008BF5FEA500C50F1000041EB045141EA2F
:10186000050130BD5FEA4C0C404141EB0101013CF8
:1018700028BFB1F5801FE9D291F0000F04BF0146E7
:101880000020B1FA81F308BF2033A3F10B03B3F1B9
:1018900020020CDA0C3208DD02F1140CC2F10C0249
:1018A00001FA0CF021FA02F10CE002F11402D8BFA7
:1018B000C2F1200C01FA02F120FA0CFCDCBF41EA73
:1018C0000C019040E41AA2BF01EB0451294330BD42
:1018D0006FEA04041F3C1CDA0C340EDC04F114041F
:1018E000C4F1200220FA04F001FA02F340EA0300F6
:1018F00021FA04F345EA030130BDC4F10C04C4F13C
:10190000200220FA02F001FA04F340EA030029461B
:1019100030BD21FA04F0294630BD94F0000F83F465
:10192000801306BF81F480110134013D4EE77FEA48
:10193000645C18BF7FEA655C29D094EA050F08BF94
:1019400090EA020F05D054EA000C04BF1946104675
:1019500030BD91EA030F1EBF0021002030BD5FEAB9
:10196000545C05D14000494128BF41F0004130BDE1
:1019700014F580043CBF01F5801130BD01F0004535
:1019800045F0FE4141F470014FF0000030BD7FEAA8
:10199000645C1ABF194610467FEA655C1CBF0B46A3
:1019A000024650EA013406BF52EA033591EA030FBA
:1019B00041F4002130BD00BF90F0000F04BF0021B2
:1019C000704730B54FF4806404F132044FF00005E5
:1019D0004FF0000150E700BF90F0000F04BF00215E
:1019E000704730B54FF4806404F1320410F00045C4
:1019F00048BF40424FF000013EE700BF42004FEABF
:101A0000E2014FEA31014FEA02701FBF12F07F433B
:101A100093F07F4F81F06051704732F07F4208BFF2
:101A2000704793F07F4F04BF41F40021704730B5F9
:101A30004FF4607401F0004521F000411CE700BF45
:101A400050EA010208BF704730B54FF000050AE0C8
:101A500050EA010208BF704730B511F0004502D5C9
:101A6000404261EB41014FF4806404F132045FEACB
:101A7000915C3FF4D8AE4FF003025FEADC0C18BF74
:101A800003325FEADC0C18BF033202EBDC02C2F166
:101A9000200300FA03FC20FA02F001FA03FE40EAF8
:101AA0000E0021FA02F11444BDE600BF80F00040B0
:101AB00002E000BF81F0004142001FBF5FEA410326
:101AC00092EA030F7FEA226C7FEA236C6AD04FEA26
:101AD0001262D2EB1363C1BFD2184140484041406B
:101AE000B8BF5B42192B88BF704710F0004F40F41D
:101AF000000020F07F4018BF404211F0004F41F439
:101B0000000121F07F4118BF494292EA030F3FD004
:101B1000A2F1010241FA03FC10EB0C00C3F1200317
:101B200001FA03F100F0004302D5494260EB4000A6
:101B3000B0F5000F13D3B0F1807F06D340084FEA11
:101B4000310102F10102FE2A51D2B1F1004F40EB06
:101B5000C25008BF20F0010040EA0300704749006E
:101B600040EB0000013A28BFB0F5000FEDD2B0FA0B
:101B700080FCACF1080CB2EB0C0200FA0CF0AABF2E
:101B800000EBC25052421843BCBFD04018437047CC
:101B900092F0000F81F4000106BF80F400000132D2
:101BA000013BB5E74FEA41037FEA226C18BF7FEAA9
:101BB000236C21D092EA030F04D092F0000F08BFEB
:101BC0000846704790EA010F1CBF0020704712F0D2
:101BD0007F4F04D1400028BF40F00040704712F111
:101BE00000723CBF00F50000704700F0004343F076
:101BF000FE4040F4000070477FEA226216BF0846AC
:101C00007FEA23630146420206BF5FEA412390EA6E
:101C1000010F40F4800070474FF0000304E000BF64
:101C200010F0004348BF40425FEA000C08BF704715
:101C300043F0964301464FF000001CE050EA0102D9
:101C400008BF70474FF000030AE000BF50EA0102EE
:101C500008BF704711F0004302D5404261EB4101DB
:101C60005FEA010C02BF84460146002043F0B64300
:101C700008BFA3F18053A3F50003BCFA8CF2083A25
:101C8000A3EBC25310DB01FA02FC634400FA02FC2E
:101C9000C2F12002BCF1004F20FA02F243EB020035
:101CA00008BF20F00100704702F1200201FA02FC97
:101CB000C2F1200250EA4C0021FA02F243EB02008A
:101CC00008BF20EADC7070477BB972B90029BEBF3B
:101CD00000204FF0004106E008BF00281CBF6FF055
:101CE00000414FF0FF3000F0C9B9ADF1080C6DE9CB
:101CF00004CE002909DB002B1ADB00F04DF8DDF8DB
:101D000004E0DDE9022304B07047404261EB410189
:101D1000002B1BDB00F040F8DDF804E0DDE90223D6
:101D200004B0404261EB4101524263EB4303704710
:101D3000524263EB430300F02FF8DDF804E0DDE9E5
:101D4000022304B0404261EB41017047524263EB11
:101D5000430300F021F8DDF804E0DDE9022304B0DC
:101D6000524263EB4303704753B94AB9002908BF95
:101D700000281CBF4FF0FF314FF0FF3000F07EB95C
:101D8000ADF1080C6DE904CE00F006F8DDF804E0D2
:101D9000DDE9022304B070472DE9F04F099D0C46A0
:101DA000002B4DD18A420F4684469646B2FA82F302
:101DB00060D94BB102FA03FEC3F120029F4000FA42
:101DC00003FC20FA02F217434FEA1E461FFA8EF474
:101DD0004FEA1C42B7FBF6F106FB117701FB04F05A
:101DE00042EA0742904208D91EEB020201F1FF3796
:101DF00002D2904200F22D813946121A1FFA8CFC51
:101E0000B2FBF6F006FB102200FB04F44CEA024C95
:101E1000644508D91EEB0C0C00F1FF3202D2644578
:101E200000F21A81104640EA0140ACEB040C00219C
:101E300025B12CFA03F30022C5E90032BDE8F08F8A
:101E40008B4205D90DB1C5E9000100210846F5E72F
:101E5000B3FA83F100294DD1A342C0F0F280904241
:101E600080F0EF80064623460846002DE6D0C5E9FF
:101E70000063E3E7002B40F0A2808A1A4FEA1E4776
:101E80001FFA8EF60121B2FBF7F407FB14204FEA8C
:101E90001C4242EA004206FB04F090420FD91EEBBE
:101EA000020204F1FF382CBF4FF001094FF0000986
:101EB000904203D9B9F1000F00F0C8804446121ACD
:101EC0001FFA8CFCB2FBF7F007FB102200FB06F6B2
:101ED0004CEA024C664508D91EEB0C0C00F1FF32AF
:101EE00002D2664500F2BB801046ACEB060C40EA1D
:101EF00004409DE7C1F120068B4004FA01FE22FA5E
:101F000006F720FA06FCF4408A401F434EEA0C0311
:101F100000FA01FE4FEA17484FEA13491FFA87FCFF
:101F2000B4FBF8F008FB104449EA044400FB0CF948
:101F3000A1450ED93C1900F1FF3A2CBF4FF0010B1F
:101F40004FF0000BA14503D9BBF1000F00F09380C7
:101F50005046A4EB09041FFA83F9B4FBF8F308FB1D
:101F6000134403FB0CFC49EA0444A44506D93C197C
:101F700003F1FF3801D2A4457AD8434643EA004032
:101F8000A4EB0C04A0FB02984445CC46434602D384
:101F900006D1CE4504D20138B9EB020C68EB070339
:101FA0005DB1BEEB0C0264EB030404FA06F622FA00
:101FB00001F3CC401E43C5E9006400213EE702FA6C
:101FC00003FEC3F1200104FA03F200FA03FCCC4043
:101FD0004FEA1E4720FA01F11FFA8EF6B4FBF7F024
:101FE0000A4307FB1044110C41EA044100FB06F4CC
:101FF0008C420ED91EEB010100F1FF382CBF4FF0CF
:1020000001094FF000098C4202D9B9F1000F2CD020
:102010004046091B92B2B1FBF7F407FB141142EAE8
:10202000014204FB06F1914207D91EEB020204F1C2
:10203000FF3801D2914215D84446521A44EA004171
:1020400021E7861A64EB030301200EE7023C724489
:1020500035E702397244D0E6F4440238E3E6F4444A
:10206000023842E7023C7244E7E702387144D0E7A5
:10207000023B3C4482E702383C446AE7704700BFB9
:10208000044B82B0C3F84C0AD3F84C320193019B45
:1020900002B0704700800256044B82B0C3F8600A59
:1020A000D3F860320193019B02B070470080025662
:1020B00030B5ADF51B7D40220021684626F0EAFDD3
:1020C0009822002110A826F0E5FD4FF4C8720021E7
:1020D00036A826F0DFFD01200FF03AFF012002F0C4
:1020E0001DF800231922CDE91D3208220225CDE971
:1020F0002323CDE92932E12201247D21CDE91A53A0
:10210000CDE92153CDE92B321093032310A8CDE95B
:102110001F44CDE92514CDE92745CDE92D451C9572
:102120002F9307F037F800B1FEE74FF440337F22DA
:10213000CDE900234FF0407302934FF08053CDE977
:102140000C344FF00053CDE90E344FF48013CDE939
:102150000804CDE90A05CDE90330CDE90500079073
:10216000684607F019FC00B1FEE7084B00226193B6
:102170004FF44003CDE93623054B36A8629307F0B0
:10218000D3FF00B1FEE70DF51B7D30BD1400000349
:10219000140400032DE9F0479AB002F029FB02ABCA
:1021A000014601AA4FF0FF3002F02AFB0024DDE9CE
:1021B000011220B2013402F08FFAC32CF7D1FFF7DD
:1021C00077FF19F0A9FD10239C4C0226C4F86C3A45
:1021D000D4F86C224FF001080492049AC4F85C3AD7
:1021E000D4F85C3296480393039B6023159307232E
:1021F00015A91993CDE91668189605F00DFB4FF453
:10220000E133904890494FF00C09C0E900130023D6
:10221000C0E90439C0E9023383614FF40043C3616C
:102220000DF094FF054600B1FEE74FF00040DFF8E7
:1022300050A2FFF731FFC4F8200ACAF82002404636
:10224000FFF71EFF3046FFF71BFF0420FFF718FFC4
:102250000820FFF715FF4FF48053C4F8543AD4F820
:10226000543215A80593059B784BCDE91655159367
:1022700006F030FC764B15A8159306F02BFC754B39
:1022800015A8159306F026FC734B15A8159306F0B8
:1022900021FC01F013FC3046FFF7FEFEC4F8206A73
:1022A000CAF8206212F0CEF912F0D6F9284610F0E2
:1022B000B1FB284610F0D2FC40F2011369462846D3
:1022C000ADF8003010F060FA284610F0CBF928463F
:1022D0000FF07CFE30B140F26D11604B604A6148F6
:1022E00025F0C2FB40460FF071FE074620B14FF4C7
:1022F000B8715A4B5A4AF2E74FF400730325C4F8F9
:10230000583AD4F858324046149315A9149B1596A0
:10231000169506F007FB15A9082006F003FB15A982
:10232000092006F0FFFA484615A906F0FBFA15A9A0
:10233000042006F0F7FA29464B4806F047FB2946E9
:102340004A4806F043FB2946494806F03FFB294628
:10235000484806F03BFB2946474806F037FB29462C
:10236000464806F033FB4FF48063C4F8583AD4F87B
:1023700058221592159AC4F8183ACAF818324FF034
:10238000FF33C4F8843AD4F884221392139AC4F821
:102390008C3AD4F88C221292129AC4F8903AD4F85B
:1023A00090221192119AC4F8943AD4F8942210927F
:1023B000109AC4F8983AD4F898220F920F9AC4F859
:1023C0009C3AD4F89C220E920E9AC4F8A03AD4F803
:1023D000A0220D920D9AC4F8A43AD4F8A4220C922B
:1023E0000C9AC4F8A83AD4F8A8220B920B9AC4F815
:1023F000AC3AD4F8AC220A920A9AC4F8B43AD4F8A7
:10240000B4220992099AC4F8B83AD4F8B8220892CA
:10241000089AC4F8BC3AD4F8BC220792079AC4F8C8
:10242000883AD4F888320693069B00F015FE3846A9
:1024300018F056FC1AB0BDE8F08700BF00800256C5
:1024400000100256B4CC0734001000520031025282
:1024500080310252003202528032025292D1023452
:10246000F2D10234A8D102340A0000300500003055
:102470001C0000201D00002001000030180000108A
:1024800000900256484A70B513688AB043F400536E
:102490001360464B1A6A22F440321A621A6A22F01A
:1024A00040721A6202F057F84FF4806305A8ADF845
:1024B000143002F001FA3E4B002207933D4B06A870
:1024C000089301238DF81A20ADF81830099302F013
:1024D000EDF9042002F0D8F9374B5A6912F40032B2
:1024E00011D1BFF34F8FBFF36F8FC3F85022BFF3EB
:1024F0004F8FBFF36F8F5A6942F400325A61BFF3B6
:102500004F8FBFF36F8F284A136843F480531360D3
:10251000A2F57342536913F4803328D1C2F8843092
:10252000BFF34F8F43F6E074D2F88030C3F3C90095
:10253000C3F34E335B0100F1010E01464EF001E0A2
:1025400003EA040646EA8175C2F8605201390FF0C9
:1025500007C8203B13F1200FEDD1BFF34F8F536914
:1025600043F480335361BFF34F8FBFF36F8F134B2F
:102570004FF480620293124B1249019301231248D7
:102580000093002318F060FB30B940F23D110F4B6F
:102590000F4A104825F068FA18F0FCFB4FF4A071C0
:1025A0000D4B0B4AF5E700BF00E001E0008002564A
:1025B00000001B34E3801F3400ED00E054CC0734EE
:1025C00054BC0734B3D1023495210034B8D102345D
:1025D00002D20234A8D1023474320634FEE700B5C8
:1025E000E5B04FF4C8720021684626F053FB002383
:1025F0001022CDE900234FF400134FF080513293A5
:1026000003236846CDE9221307F08EFD48B9002365
:102610000822CDE90023282324906846259307F05B
:1026200083FD65B05DF804FB07B5194B02689A425B
:1026300006D040F2A711174B174A184825F014FA94
:102640004FF48022164BC3F85C2AD3F85C32019316
:10265000019B06F0ADFB134AD36B5B03FCD506F080
:1026600087FB4FF08060FFF717FD0F4B4FF00060C6
:102670001A6822F070021A601A6842F020021A608A
:10268000FFF70AFDB12003B05DF804EB02F082B859
:1026900000000458C4D10234E2D10234A8D102347B
:1026A000008002560048025600FC035808B54FF45B
:1026B0008060FFF7E5FC4FF08040FFF7EDFC044B36
:1026C000C3F8200A03F58053C3F8200208BD00BFF9
:1026D0000080025600BEFEE70120024B18600FF09A
:1026E00055BC00BFD02E083410B5494204460068DE
:1026F00017F0F8FF70B1D4F8B43004EB8302D2F8CD
:10270000AC00D4F8A820013393FBF2F102FB1133A3
:10271000C4F8B43010BD000010B5094C4FF0FF31C3
:10272000206817F0DFFF012806D040F2BD21054BDD
:10273000054A064825F098F901F01EFBEEE700BFB8
:10274000A4CD073410D20234D1D402341ED20234C4
:1027500070B51A4E04460D4630684FF0FF3117F041
:10276000C1FF012805D0DC21154B164A164825F07B
:102770007BF9D4E90201281841EBE5712560656811
:10278000C4E9020101356560FFF758FA07EE905A77
:1027900006EE900AF8EEE77A002386EEA77A1A464C
:1027A00084ED047A1946306817F090FD012803D0B3
:1027B000E421034B034AD9E770BD00BFD05C0C3461
:1027C00010D2023492D402341ED202342DE9F047E2
:1027D0008AB00E4604469246994601F0DFFA6FF041
:1027E0002802134D2B8802FB030801F0D7FA074695
:1027F00001F0E8FA94ED047AB7EEC77A8DED087B24
:1028000022680346CDE905A20A4A31460492129A8B
:10281000284601320392084A02926A8809FB02F2B2
:10282000CDE900823A4600F0F7FF0AB0BDE8F08734
:10283000DC5C0C344D30063428D202340022024BCA
:1028400001201A600FF0B2BBD02E083408B5064B39
:102850001A6832B940F2D121044B054A054825F0E7
:1028600003F900221A6008BDCC2E083443D202348A
:102870004DD402341ED2023410B54FF0FF3104465D
:10288000406D17F02FFF012806D040F22F110A4BA0
:102890000A4A0B4825F0E8F8D4F8B83004EB830274
:1028A000D2F8AC00D4F8A820013393FBF2F102FB7C
:1028B0001133C4F8B83010BD10D20234B2D402348F
:1028C0001ED2023438B50D4602210446021D0846C8
:1028D00017F0DCFC206050B10021022004F1580206
:1028E00017F0D4FC606528B9206817F0FBFF4FF0A3
:1028F000FF300DE00223C4F8A8302B684BB1C4F8B8
:10290000AC306B682BB10020C4E92D00C4F8B030A6
:1029100038BD4FF48271024B024A034825F0A4F8F7
:1029200051D2023441D402341ED20234002313B5F2
:102930000446019319F022FB0346B0B1606D01A972
:1029400017F0E4FD012806D04FF49F710D4B0E4A9D
:102950000E4825F089F8019B2BB14FF0E0234FF092
:102960008052C3F8042D02B010BD02460146606DCE
:1029700017F0ACFC0128F6D04FF4A171014B024ACC
:10298000E6E700BF10D2023463D402341ED2023410
:10299000036870B5002BBCBF002303600B680546BD
:1029A000002BBCBF00230B6006680C4601F0F6F953
:1029B000864203DB01F0F2F901382860256801F056
:1029C00001FA854203DB01F0FDF90138206070BD9A
:1029D00008B500231A46194617F078FC012806D0DE
:1029E0004FF49371024B034A034825F03DF808BDAC
:1029F00010D2023482D402341ED202342DE9F84FB0
:102A000001F08AF9044601F083F9D4E90223A3F521
:102A1000B753183B9342D0E9025606D040F27F11DB
:102A20003C4B3D4A3D4825F01FF801F075FB002165
:102A30003B48FFF759FE20B940F28511394B364A21
:102A4000F0E7002101F084F9DFF8D480364FDFF899
:102A5000F490761B01F060FB4046FFF70DFF8346C4
:102A600020B940F29111314B2B4ADBE70121384666
:102A7000FFF73AFE824620B940F293112C4B264ACA
:102A8000D0E701F049FB044601F046FB324605461B
:102A90005946002001F0B0F80AF01F0E0EF5B75E9F
:102AA00053460EF1180EBFF34F8F0EF1FF3E4FEA63
:102AB0005E1E0EF1010E4EF001E0C9F85C322033CB
:102AC0000FF005C8BFF34F8FBFF36F8F41F2F8626D
:102AD0005146002001F0AAF820B140F29D11154B9B
:102AE0000D4A9FE7144811F007F801F015FB411B50
:102AF0001248FFF72DFED8F80000FFF769FF3846AF
:102B0000FFF714FF01F008FB011B0D48FFF720FE43
:102B1000A0E700BF5CD2023474D402341ED2023467
:102B2000A0590C347DD20234E02A0C3489D202340C
:102B300098D20234A6D202348CB30734085C0C3429
:102B4000F05B0C3400ED00E02DE9F04F2DED088B2B
:102B5000CFB016A812F07EF89FED57AA9FED549BB8
:102B60005648FFF789FE044630B940F2A121544B84
:102B7000544A554824F078FF01F0CEFA079001F04E
:102B8000CBFA002305461493012116AB14AA0FA813
:102B90000F9412F079F8064620B140F2A9214B4B70
:102BA000484AE6E701F0B8FA494C411B04F1200716
:102BB000484804F13805FFF7CBFD0FCF0FC597E864
:102BC000030085E8030001F0FBFA0546C4E90806A6
:102BD00018F0D8FD2D1A63EB0303C4E90A5301F082
:102BE0009BFAA36C226E20639B1AB3F57A7F0DD2F9
:102BF000394BD3F80080394BB8F1000F0ED1C3F830
:102C000000802E4B1868FFF7E3FEA9E7902204F13D
:102C1000380104F1500026F023F8E9E71B68002B87
:102C200032D02F4B1D68003D18BF01254FF46112B3
:102C30002C4B2D4C1B6820AF02FB034401F06CFAB7
:102C4000DFF8BCC00890BCE80F000FC7BCE80F005D
:102C50000FC79CE8030087E8030001F0B3F8DFF832
:102C60009C90224FB9F802304FF0FF3190FBF3FAFD
:102C70003868AAF10403099317F034FD012805D040
:102C8000EC211B4B1B4A74E70125CFE790221A4920
:102C90002AA819F0C3FA002338681A46194617F013
:102CA00015FB012800F0C380F121114B114A60E7A8
:102CB00000000000000059400000C842E02A0C3427
:102CC00098D20234C3D402341ED20234C5D20234A4
:102CD000105B0C34385C0C34D02E083450CD0734E3
:102CE000C82E0834BCB3073400980491D05C0C346F
:102CF00010D20234A3D40234F05B0C34D45C0C3414
:102D000020C902341823149F03FB0677D7ED00AACD
:102D100097ED018A01F042F808EE900A01F052F8AE
:102D200007EE900AF8EEE77A67EE887AF8EEE88A1E
:102D3000FDEEE77A97ED02BA17EE90BA68EEAA8A2E
:102D4000D7ED03AA01F02AF808EE100A01F03AF8CC
:102D5000B8EEC88A07EE900A28EE0B8AF8EEE77AFA
:102D6000BDEEC87AFDEEE88A67EEAA7A17EE103A51
:102D700018EE902AFDEEE77A013303EBD3735B1074
:102D80005B429A18109217EE902A013202EBD2722F
:102D90005210524202EB0B01119118EE901AABEB5C
:102DA0000202CB1A10A811A912931392FFF7F0FD9B
:102DB00013A912A8FFF7ECFDDDE9102B129B97ED8C
:102DC000048A9B1A1BB20A93139B0D92A3EB0B036D
:102DD0001BB20C9300F0E2FF0B9000F0F3FF0D9A92
:102DE0000C9B17B24FF0FF3202930A9B0FFA8BFB3A
:102DF0000B99CDE900B303923B460246204600F012
:102E000051FC00F0CBFF0A9000F0DCFF28EE0A7ABC
:102E1000B7EEC77A7B4A0346CDE901B28DED047B5C
:102E2000214648460A9A009700F0F6FC0136159BA9
:102E30009E42FFF667AF309E00F0B0FF814600F083
:102E4000C1FF07EE906AB8EE677B8DED047B10261C
:102E50006D4A6E4F02927A88099903464A4301925D
:102E60004A46DFF8F09138462146009600F0D4FC3F
:102E7000D9E91C32D9E91601C01A61EB0201FEF74B
:102E8000DFFDD9E91A3241EC180BD9E91401C01A57
:102E900061EB0201FEF7D4FD28EE098B41EC160B25
:102EA00088EE067BB7EEC78B00F078FF814600F016
:102EB00089FFB7EEC88A8DED048B554AAAF1030A43
:102EC00002927A8821460AFB02F20346CDE90062AB
:102ED00038464A4600F0A0FC159B092B28BF092361
:102EE0001F4600F05BFF814600F06CFF4021CDE9FA
:102EF0000266CDE900114EAB03EB8703024649465B
:102F0000204653F8B83C00F07BFC00200FF0E8F8B6
:102F100001284049404A06D10B6823B91368B3FA27
:102F200083F35B091360136808605BB30027042612
:102F300001232146394A2AA80097FFF747FC0223BC
:102F40002146374A30A80096FFF740FC032321466C
:102F5000344A36A80097FFF739FC33462146324AF7
:102F60003CA80096FFF732FC052321462F4A42A8D1
:102F70000096FFF72BFC062321462D4A009648A811
:102F8000FFF724FC01F0C8F8089BC11A2948FFF795
:102F9000DFFB01F0C1F82B4606464FF47F32204696
:102FA000254900F0E7FC041E244D06DD244B1B6878
:102FB00013B301234FF0FF342B6001F0ADF8811BF8
:102FC0002048FFF7C5FB002C09DD01231C4E2146DC
:102FD0001D48336023F04EFD08B100233360002309
:102FE0002B601A4BC3F8008001F096F8079BC11ABA
:102FF0001748FFF7ADFB04E622460F49124819F0C7
:103000000DF9DAE7E7D20234F0D20234D45C0C34A2
:1030100007D302344CCD073448CD07341FD30234D4
:1030200031D302343FD3023451D302345FD302345C
:103030006DD30234505C0C3400001B34C82E0834AD
:10304000CC2E0834685C0C34E02E083450CD0734A4
:10305000205C0C34105B0C3470B5002492B0182244
:1030600000210CA825F016FE7848CDE909440B9400
:1030700025F0DEFC764A2146D2F8FC30204643F0AB
:103080008073C2F8FC300EF0CDFF014630B140F243
:10309000E521704B704A714824F0E6FCE02270484C
:1030A000704C25F0F7FD94E8030005AB83E80300BE
:1030B00019466D48FFF706FC20B140F2EB216B4B3F
:1030C000654AE8E707ABD4E9020183E80300194643
:1030D0006748FFF7F7FB20B140F2ED21634B5E4AF2
:1030E000D9E76449644800F00DFA20B140F2F121BB
:1030F0005E4B594ACFE76149614800F003FA044644
:1031000020B140F2F321594B534AC4E701255D4BEE
:103110001E26C3F8785AD3F878320493049B0DF036
:1031200005F900F0D9FE00F039FE099000F04AFEE2
:103130000A9009A80B9600F09FFB00F02FFE0C9060
:1031400000F040FE0523504ACDE90F354F4BCDE945
:103150000D0613604E4B0CA953604E4B4E489360C6
:1031600023F0F0FB214628464C4A17F08FF84C4BD1
:10317000186020B940F20F314A4B374A8BE721469D
:103180002846494A17F082F8484B186020B940F2A7
:103190001131474B304A7EE72846464917F038F947
:1031A000454B186020B940F21331444B2A4A72E76C
:1031B0002846434917F02CF9424B186020B940F2D9
:1031C0001531414B244A66E72146404800F0ACFDEA
:1031D0003F4B4FF4006202933E4B3F4901931D2346
:1031E0003E480093234617F02FFD20B940F21D31D1
:1031F0003B4B194A4FE73B4B4FF4006202933A4B6B
:103200003A4901931A233A480093002317F01CFD12
:1032100020B94FF44871324B0F4A3CE7354B4FF41D
:1032200000620293344B354901931E2334480093C6
:10323000002317F009FD20B940F22331284B064A3C
:1032400029E700200EF0A2FE12B070BD7BD302343D
:1032500000ED00E092D10234E0D402341ED20234F8
:10326000105B0C3448C90234A0590C348CD302349E
:10327000E02A0C34DC5C0C34CCB30734D45C0C3462
:10328000D4B3073400800256D42E0834D926003433
:103290003D2800344D2800340000045854CD073434
:1032A000A4CD073495D30234645A0C34B45A0C3488
:1032B0009DD30234B85A0C34085B0C34A7D30234C3
:1032C000805C0C34D05C0C34B2D30234009804918E
:1032D000682E0834680E0834C1D30234FD29003446
:1032E000B8D10234080E083408EE0734C4D30234CF
:1032F000492B0034A8ED0734A8CD0734C7D30234D6
:103300001927003401282DE9F04105462BD103236C
:10331000DFF8A480214FD8F800603C680136013402
:1033200096FBF3F294FBF3F302EB420203EB43034D
:10333000E41AB61A11F0AEFE4FF46112184B29468A
:1033400002FB0433002203F0E1FC30B14FF4A7711B
:10335000144B154A154824F087FBC8F800603C6000
:103360000020BDE8F0810228FAD100211048FFF7C3
:10337000BBF904460028F3D011F08CFE234600224E
:10338000294603F0C3FC20B140F25D11054B094A08
:10339000E0E70748FFF7CAFAE2E700BF5C5A0C34DF
:1033A00000980491CBD3023427D402341ED20234C5
:1033B000A0590C3408D40234BCB30734012807B533
:1033C00010D100230193094B01A9186817F09EF84A
:1033D000012807D1019B2BB14FF0E0234FF0805221
:1033E000C3F8042D002003B05DF804FBA4CD07341E
:1033F000094B10B54FF0FF310446186817F072F909
:10340000012806D040F23F31044B054A054824F01C
:103410002BFB054B1C6010BD085B0C3410D2023432
:10342000FCD302341ED20234605A0C3408B5002397
:1034300007481A461946006816F048FF012806D0CA
:1034400040F24931034B044A044824F00DFB08BD07
:10345000085B0C3410D20234EED302341ED2023494
:1034600008B5084B4FF0FF31186817F03BF90128F9
:1034700006D040F25131044B044A054824F0F4FAD6
:1034800008BD00BFB45A0C3410D20234E5D3023464
:103490001ED20234002307B501930C4B01A9186812
:1034A00017F034F8012806D040F25A31084B094A87
:1034B000094824F0D9FA019B2BB14FF0E0234FF0DB
:1034C0008052C3F8042D03B05DF804FBB45A0C34E9
:1034D00010D20234D9D302341ED20234014B186800
:1034E00004F060B8605A0C3408B52521024B034A39
:1034F000034824F0B9FA00BF743206343D55053450
:10350000205505342DE9F04F8588C78804464FF4CF
:10351000BE7007FB05F887B000FB08F00E4624F0EC
:10352000DDFA0346706000285AD04FF0000C5F208F
:103530004FF0010B2268358077800192E2880735D1
:103540000292ED104FEA8802049207FB05F2A6886A
:103550000592F41D24F0070EB200E40803920EF168
:10356000FF3E99464FF00008019A02EB0C05029AC3
:10357000904508D3049A01381344059A9444F0D135
:1035800007B0BDE8F08F2978012C0A4604D0022C40
:1035900010D12A8852BA92B20027BE4206F1010128
:1035A00008BF012101390CD1039A08F101089144A7
:1035B0002544DCE76A78090441EA0221AA780A4333
:1035C000EAE7AEEB070A0BFA0AFA1AEA020F14BF8F
:1035D0004FF0FF3A4FF0804A49F827A00137E1E762
:1035E0004FF0FF30CCE70000F0B59DB00D4614461B
:1035F00000216022064604A81F4625F04BFB4FF42D
:103600004033224A02A8CDE902232B1B0593FFF782
:10361000EFFE02A803F024FE28B16E211C4B1D4AC8
:103620001D4824F021FA012102A804F045F818B140
:103630007121174B174AF3E73C2001F0ABF8174B09
:1036400024990A93164B00970B93DDE9222303FB81
:10365000052202A8234606EB820203F08BFE18B176
:1036600078210B4B0B4ADBE7FFF7FAFE3C2001F019
:10367000A5F802A803F05EFF18B17F21044B054AAC
:10368000CEE7FFF7D3FE1DB0F0BD00BF001002581B
:10369000CBD30234515505342055053471380034EC
:1036A000E93400342DE9FF470546DDE90C7ADDE910
:1036B0000E980E461C4652460093CDE90178012330
:1036C000FFF792FF07EB0903013BCDE900435246A8
:1036D000314628460123CDF80880FFF785FF4B4689
:1036E0003146284600940122CDE90178FFF77CFF9E
:1036F0004B460122314628465444013CCDE90D7821
:103700000C9404B0BDE8F047FFF76EBF2DE9F0411F
:103710009CB01D460F4604460021164604A86022B0
:1037200025F0B8FA4FF400332F4A02A8A7EB05089A
:10373000CDE90223CDF81480FFF75AFE02A803F06A
:103740008FFD28B13A21294B294A2A4824F08CF9C7
:10375000FF230121CDE90C80CDE91000CDE915034F
:10376000CDE91300CDE917000E9002A80F9303F0E6
:10377000A3FF014618B14B211C4B1D4AE5E702A8E7
:1037800003F09AFF18B14D21184B194ADDE71A4B87
:103790003C200A93194B0B93DDE9233202FB0733DC
:1037A00004EB830400F0F6FF229B2246CDE9005390
:1037B0003146234602A803F017FE18B154210B4BE3
:1037C0000B4AC2E7FFF74CFE3C2000F0F7FF02A8CF
:1037D00003F0B0FE18B15B21044B054AB5E7FFF7D3
:1037E00025FE1CB0BDE8F08100100258CBD3023496
:1037F0002B5505342055053471380034E934003434
:1038000070B41A46DDE90556DDE90334CDE9045606
:10381000039470BCFFF77ABF00232DE9F04397B003
:103820008DF85430044621AB884691464021209AB9
:1038300005A81E9F049325F071F905AD15F8016BDD
:1038400016B917B0BDE8F08360882388203E03FBDB
:1038500000F2724361681F9E0090CDE9017601EB92
:10386000820240464946FFF751FF23881F44E5E79F
:1038700008B5FFF70FFE08BDF0B507460125332652
:10388000DDB0342200210BA825F004FABB68354CCA
:103890005A1E22613A6821460C927A680BA8CDE93B
:1038A0000D238DF82D508DF82E600F95129518F080
:1038B00061FE28B1D3212C4B2C4A2D4824F0D4F89A
:1038C0006946206819F099FB18B1D721264B274A81
:1038D000F3E70B23694620688DF8103019F0ACFA35
:1038E00018B1DA21204B214AE7E7206827A919F00F
:1038F00078F818B1DE211C4B1C4ADEE7206827A9A6
:10390000299518F06FFE18B1E121174B174AD4E73B
:10391000206818A919F040FA18B1E521124B134A92
:10392000CBE7D7E900314B430C21BA68CDE91855F4
:1039300053434B431E21192593FBF1F30A211A909F
:10394000CDE91B511F90229018A920681D96219245
:103950001E9319F01BF918B1F221034B034AACE78F
:103960005DB0F0BDE85C0C34635505349155053409
:10397000755505342DE9F04F3B4C81469846D4E906
:1039800000030D46174699B0002B6BD1CDE91011FD
:1039900012920CA903AA19F07FFB00285DD1049EA6
:1039A00005EB060C1CF007031DD0C3F1080ABAF1A1
:1039B000060FC3F1100338BF9A46BB1B53454CD3C7
:1039C0000123A8558CF803302C238CF801008CF8C7
:1039D00002008CF80430FF21AAF105020CF1050069
:1039E00025F058F953461E44012363600021D4E9B1
:1039F00002AB3544BF1BCDE90D11CDE9105522694D
:103A0000CDF830901297B8F1000F09D1013250462D
:103A10005946D317FEF7A8F91A4314BF0121002114
:103A200001230F930323ADF854300023CDE9003375
:103A30008DF84C10206803AA0CA9CDE9163319F0B3
:103A400065FC012809D1D4E902320498013342F11E
:103A50000002C4E90232304401E04FF0FF3019B0F7
:103A6000BDE8F08F0026C1E7E85C0C3424F03EB8D6
:103A700008B524F017F830B94FF48D71024B034AA2
:103A8000034823F0F1FF08BD8355053487550534FD
:103A900075550534074830B50368074D5C18AC42CE
:103AA00097BF04604FF0FF300020C2E9003198BF9B
:103AB000936030BDC0B307340058ED911FB5154B6E
:103AC0007C2101AA02A802930BF00AFF0346E0B989
:103AD000019A02F4C031B1F5C03F17D042F4C032B0
:103AE0007C2102A801920BF017FF68B97C2101AA82
:103AF00002A80BF0F5FE30B9019B03F4C033B3F517
:103B0000C03F03D0FEE7FEE7FEE7FEE705B05DF845
:103B100004FB00BF009000567047FEE7FEE7FEE79B
:103B2000FEE708B511F0B6FABDE8084001F06CBC3C
:103B300008B511F0AFFABDE8084001F02FBB22F044
:103B400097BF00000149024810F098BD806D2034F5
:103B5000C067203430B5254CAFB02068D22500F5C1
:103B6000B85100F5B75010F089FDB422002101A82A
:103B700025F090F840F2BE5107222A231E20CDE9FD
:103B80000615CDE90222CDE90D228DF804300A9107
:103B90000123119178224FF45271CDE90403CDE94C
:103BA0000803CDE90F03CDE91212042041F2F862B7
:103BB000CDE9140222680E4D16920E4A01A82192F8
:103BC00010328DF830308DF85C301C938DF88830D1
:103BD00027932C928DF8B4300B9510F005FC2068DB
:103BE00000F5B85110F074FD2FB030BD60120D34E7
:103BF000C0672034B0A9E07040B911F01F0007D1B0
:103C0000B2F5133F06D3044B196070470320704789
:103C1000012070470220704764120D3410B9024B26
:103C2000186870470020704764120D3448B911F0CD
:103C30001F0008D141F2F7639A4206D9044B19607C
:103C4000704703207047012070470220704700BF73
:103C500060120D3410B9024B18687047002070478D
:103C600060120D340022104B13B51A600FF0D6FE0F
:103C70000E490F4810F0FAFC0FF0E8FE42F65653DA
:103C80000B490C4801AA019310F04AFC044640B1CC
:103C9000084810F08FFC084B04491860044810F0E5
:103CA00017FD204602B010BD005D0C3460120D34CB
:103CB000085D0C3450620534045D0C3413B50FF00C
:103CC000ADFE0C490C4810F0D1FC0FF0BFFE0B4BC1
:103CD0000B4800930B4B00221B680749006810F04B
:103CE0007DFC044618B10349034810F0F1FC20465E
:103CF00002B010BD60120D34085D0C34005D0C3450
:103D0000045D0C3464120D3400487047E4610534DE
:103D1000004870477461053400487047DC60053422
:103D200000487047D45A05340A4608B501460120B8
:103D300011F076FA28B1C621024B034A034823F05A
:103D400093FE08BDE8170634E0180634FE17063463
:103D50000A4608B50146022011F062FA28B1CE21C8
:103D6000024B034A034823F07FFE08BDE8170634E0
:103D7000CF180634FE17063408B511F05FFB28B1E2
:103D8000D621034B034A044823F06EFE08BD00BF52
:103D9000E8170634C1180634FE17063408B5054B7B
:103DA000186828B9DB21044B044A054823F05CFE5F
:103DB00008BD00BF70120D340C180634B01806345C
:103DC000FE17063408B5054B186828B9E221044BE4
:103DD000044A054823F048FE08BD00BF6C120D34AC
:103DE000171806349E180634FE17063407EE901A8C
:103DF00070B52DED068B1446F8EEE78A0D460646A3
:103E0000FFF7CCFF07EE900AF8EEE79A07EE904A2C
:103E1000B8EEE78AFFF7D6FF07EE900AF8EEE77AEA
:103E200088EEA9AA88EE279AB4EE49AAF1EE10FA14
:103E3000F7EE007A48BFB0EE4A9AB4EEE79AF1EE98
:103E400010FA05DA50211F4B1F4A204823F00CFEC0
:103E5000DFED1F7AB4EEE79AF1EE10FA03D45121A8
:103E60001C4B194AF1E769EE897AF4EEE78AF1EE24
:103E700010FACCBFFCEEE78AFCEEE88AC6ED008AB9
:103E8000FFF7A0FF07EE900AF8EEE77A67EE897A6F
:103E9000B4EEE78AF1EE10FA18EE903ACCBFBCEE21
:103EA000E78ABCEEC88A0135ED1A18EE103A0134E3
:103EB000E41A6D08640886ED018ABDEC068BB560D6
:103EC000F46070BD231806341E190634FE1706343C
:103ED000000080422E1806342DE9F04395B00DF114
:103EE000070011F0C9F928B1AC21784B784A79481C
:103EF00023F0BAFD9DF80730012B07D0022B10D01C
:103F0000002B3FD04421744B744AF0E74FF42261F8
:103F10004FF4F36202234FF4A0674FF43474184651
:103F200009E04FF448714FF4167201234FF42077E3
:103F30004FF4F0740320DFF8DC81694EC8F80030DC
:103F4000684B694D1F60694B31601C60684B2A608B
:103F500053F82010674824F003FD33681E200393B4
:103F60002B6804930023CDE905030793D8F80030AC
:103F700003A8089311F00CFA044658B1B721534B2B
:103F8000534AB4E74FF48C614FF4347201230F4667
:103F90001446C4E7039B04273360049B2B6011F095
:103FA00079F840F22F210F23CDE90C440224CDE90A
:103FB0000E1309A90546CDE909440B9700F0F0FF5F
:103FC00018B18F214C4B4D4A91E705234FF40C72E9
:103FD000099340F27F230F9009A92846CDE90B747D
:103FE000CDE90D2300F0DCFF054618B19821424BC6
:103FF000424A7CE7FFF7D2FEDDE903890646FFF778
:10400000E1FE864203DA5F213D4B3E4A6FE70996A7
:10401000FFF7D8FE03264A464146CDE90A0410A818
:10402000CDE90D550C970F96FFF7E0FE012002AA8F
:1040300009A911F033F818B16A212F4B314A56E71C
:104040000C9A099B5343029A934203D06B212E4B47
:104050002C4A4CE70125DDE90312E023CDE90B06EC
:10406000CDE90D5010A8CDE909330F96FFF7BEFE3C
:10407000204602AA09A911F011F818B17D211E4BA2
:10408000224A34E70C9A099B5343029A934203D085
:104090007E211D4B1D4A2AE710F0FCFF4FF46042C1
:1040A0002946044602F0C2FE18B1A021124B184A5C
:1040B0001DE72946204602F011FF18B1A2210E4B40
:1040C000134A14E715B0BDE8F08300BFE8170634C3
:1040D0006C190634FE170634743206345A19063445
:1040E00078120D3470120D3474120D346C120D34BC
:1040F000A419063439180634CBD3023448190634CF
:104100004618063431190634601806340C19063482
:10411000F618063468120D3416F094BE08B5EFF3A5
:1041200005832BB12721044B044A054823F09CFC4E
:10413000BDE8084016F0E8BF74320634D3190634DF
:10414000B419063400207047042213B5154B164CE1
:10415000C3F8642AD3F864320193019B134B2360A4
:104160004FF0FF33E36005F0B3FE114BB0FBF3F00B
:1041700000230138606020462361A3600DF0B0FD8C
:1041800028B13E210B4B0C4A0C4823F06DFC204615
:104190000DF0E4FB18B14121064B074AF4E702B0E9
:1041A00010BD00BF008002563C250D3400080050B1
:1041B000A0860100CBD30234C7190634B4190634E3
:1041C000014B1B68586A70473C250D34034B036054
:1041D000034B0B604FF4806313607047DC240D3495
:1041E000DC140D34034B0360034B0B60802313601E
:1041F000704700BF7C140D347C120D34444B454A8B
:1042000070B501209A60022500224349434E01F512
:104210008054C1F8180AC4F81802C4F85802C3F848
:10422000D820C3F8DC20C3F8E020C3F8D800C3F8D6
:10423000DC20C3F8E020C3F8D8500325C3F8DC2005
:10424000C3F8E020C3F8D8500425C3F8DC20C3F835
:10425000E020C3F8D8500525C3F8DC20C3F8E020DF
:10426000C3F8D8500625C3F8DC20C3F8E020C3F813
:10427000D8500725C3F8DC20C3F8E020C3F8D85095
:10428000C3F8DC20C3F8E020C1F8780AD1F878221E
:104290009A683261224AD56B45F48055D563D56B57
:1042A00045F01005D563D26BD1F8742242F4004278
:1042B000C1F87422D1F8782242F01002C1F87822B5
:1042C000D1F87822D1F8782222F01002C1F87822B1
:1042D0004FF44052C1F8202AC4F820224022C1F8ED
:1042E000240AC4F82402C4F86402C4F85C223269C7
:1042F000C4F87802D3F8882042F47002C3F888200A
:10430000084AD2F8883043F47003C2F8883070BD90
:1043100000ED00E0000400340080025600800056EA
:104320000048025600ED02E07A4BF0B51A6A02F43A
:104330004012B2F5001F00F0CF8008D8002A39D013
:10434000B2F5801F3CD00022734B1A60F0BDB2F56D
:10435000401FF8D1D3F8C42002F04052B2F1805F80
:1043600036D0B2F1005F44D0002A52D1D3F8802079
:1043700012F0006502F0E04140F0B780D3F884000D
:10438000D3F88830C2F30B2620F07F400D46B5F1FC
:10439000005FC3F3C264C2F30551C3F3026300F0CC
:1043A000928000F29B80002D47D0B5F1805F7AD0DB
:1043B000002249E09B6C594AC3F3C113DA40C3E7BA
:1043C0005B6C574A13F4007F564B08BF1A46BBE795
:1043D000D3F8902012F0006502F0E04140F08580B3
:1043E000D3F89400C2F30B26D3F8983020F07F4026
:1043F000CCE7D3F8A02012F0006502F0E04174D1C0
:10440000D3F8A400C2F30B26D3F8A83020F07F40E5
:10441000BCE7D3F8B02012F0006502F0E04164D1AF
:10442000D3F8B400C2F30B26D3F8B83020F07F40A5
:10443000ACE70B460C4608460E46364A976C374AA0
:10444000C7F3C117FA402DBB07EE900A07EE106ABA
:10445000FAEEC47AB8EEC77A37EE877A07EE902A7A
:10446000F8EEE77A67EE277A07EE101AB8EEC77A09
:10447000C7EE876A07EE904AB8EEE77A07EE903A01
:10448000F8EEE77A27EE277AC6EE877AFCEEE77A2F
:1044900017EE902A1F4BD3F8C430C3F30743013300
:1044A000B2FBF3F250E700251A4A1E4F526C12F489
:1044B000007F1B4A08BF3A46C5E700231C46184642
:1044C0001E461946F0E70025174ABCE700231C46A4
:1044D00018461E461946F7E7134A35E7B5F1405F1F
:1044E0007FF466AF0025114AADE7B1F1005FEDD072
:1044F00006D800299DD0B1F1805FDED00022C9E747
:10450000B1F1405FFAD100231C4618461E461946F9
:10451000E9E700BF00800256C4B307340090D0031F
:104520000024F40000093D00006CDC020080BB00A8
:104530006DED81CF00B5FFF7F7FE054B5DF804EB9D
:1045400018689FEC100A9FE80E90FDEC81CF74472D
:10455000C4B30734704710B5032000F09FF8FFF78D
:10456000E3FE0F20FFF7EEFD044618B9FFF7F2FF58
:10457000204610BD0124FBE7014B5869704700BF7E
:1045800000900056014B9869704700BF009000569C
:10459000014BD869704700BF0090005638B54B7882
:1045A00005460F2B0C4604D940F2D1212948FEF7CD
:1045B00091F82378012B04D940F2D2212548FEF747
:1045C00089F86378AB602B6923F001032B61637B6F
:1045D000012B04D940F2DB211E48FEF77BF8A37BB8
:1045E000012B04D94FF437711A48FEF773F8237B77
:1045F000032B04D940F2DD211648FEF76BF8E37B6C
:104600009A1E012A05D923B140F2DE211148FEF796
:1046100061F8A378072B04D940F2DF210D48FEF79B
:1046200059F86368627B23F01F031343E27B43EA7C
:10463000C203227B43EA4203EB60A368227823F0A3
:104640001F031343A27B43EA0213A27843EA420307
:104650002B6138BDDD19063438B50B780446072BBD
:104660000D4604D940F2F3210B48FEF733F8FF2141
:104670002B78032B92BF04F1300004F13400043B8B
:104680000268DB00994022EA0102697801FA03F32B
:104690001343036038BD00BFDD190634C31E042B6D
:1046A00010B5044603D9E6210948FEF713F8094975
:1046B0002302CA6803F4E06322F4E0621204120CDD
:1046C000134343F0BF6343F40033CB6010BD00BF1E
:1046D000DD19063400ED00E010F10C0F2DE9F0417A
:1046E00005460C46174601DB031D03D1FF21264872
:1046F000FDF7F0FF254BDE68C6F30226022E06D832
:1047000057B14FF481712048FDF7E4FF04E0012325
:10471000F21E9340BB42F4D90F2CC6F1070804D80F
:10472000012303FA08F3A34204D840F20311164808
:10473000FDF7D0FFB8F1040F06F1040328BF4FF0D6
:1047400004084FF0FF32062BA6F1030698BF00269F
:1047500002FA08F824EA0803B24027EA0207B34045
:10476000002D43EA0703ACBF05F16045084A4FEA54
:104770000313DBB2ABBF05F5614505F00F0585F806
:1047800000335355BDE8F081DD19063400ED00E03B
:1047900014ED00E0002808DB01234109054A00F080
:1047A0001F00834042F82130704740F21511024843
:1047B000FDF790BF00E100E0DD19063400280DDBB5
:1047C00001220949430900F01F008240203341F8CB
:1047D0002320BFF34F8FBFF36F8F70474FF4937158
:1047E0000248FDF777BF00BF00E100E0DD190634A5
:1047F000024BD868C0F30220704700BF00ED00E014
:1048000010F10C0FF8B504460D4617461E4601DBA5
:10481000031D04D14FF4BC711948FDF75BFFEB1E7B
:10482000042B04D940F279111548FDF753FF002CF1
:10483000ACBF04F16044134B05F00701C1F107025E
:10484000ABBF04F5614404F00F0494F800331B5D22
:10485000081D042A28BF04220628A1F103014FF0F5
:10486000FF3098BF00211B0900FA02F223FA01F47D
:10487000884024EA020223EA00033A603360F8BD6C
:10488000DD19063414ED00E0BFF35F8F064B40F0F6
:104890000100C3F894005A6A42F480325A62BFF3AE
:1048A0004F8FBFF36F8F704700ED00E00146014866
:1048B000FFF774BE90ED00E001460148FFF7CCBE63
:1048C00090ED00E0F8B51446036871BBD3F80424FA
:1048D00022F4C01242EAC442C3F80424234B022C3F
:1048E0001A6838D0032C39D0012C3AD142F040025A
:1048F0001A60FFF711FC4FF4003607461B4DA64027
:10490000FFF70AFCC01BB0F57A7F2DD8D5F89030A0
:1049100036EA0303F4D14FF488530020D5F8802001
:10492000A3401343C5F88030F8BD0129D3F804280B
:1049300006D122F4C01242EAC442C3F80428CDE7EB
:10494000520341BFD3F8042C22F4C01242EAC442FD
:10495000C3F8042CC2E742F48062C9E742F4804203
:10496000C6E742F00402C3E70120DDE7006000581B
:10497000012930B54FF00205046810D18571D4F8D3
:1049800000190B43C4F80039C4F8C429D4F8F03333
:1049900043F4060343F02003C4F8F03330BD084469
:1049A0004571D4F8001D0B43C4F8003DC4F8C42D74
:1049B000D4F8F03343F00643ECE770B415461E46D6
:1049C00099B9022301684371D1F800253243C1F837
:1049D0000025C1F8C455D1F8F03370BC43F4064348
:1049E00043F02003C1F8F033704770BCFFF7C0BF3D
:1049F000022383710368D3F8042842F00042C3F80D
:104A00000428D3F8002942F00802C3F800297047AF
:104A100069B90368D3F8042442F00042C3F80424BF
:104A2000D3F8002542F00802C3F800257047012999
:104A300001D1FFF7DDBF0368D3F8042C42F0004238
:104A4000C3F8042CD3F8002D42F00802C3F8002D5F
:104A500070470000184B10B55A69C9B242F4803251
:104A60005A611A6942F001021A615A6942F48032AD
:104A70005A6100221A615A615C695C611C6944F0E8
:104A800001041C611A615C6944F480345C611C6936
:104A900044F001041C615C69044344F480345C61AB
:104AA0001A615A61586901435961196941F001015C
:104AB00019611A6110BD00BF0070005810B504469E
:104AC000D8B103680E4A934208D002F17042934273
:104AD00004D04FF4A7710B48FDF7FCFD237913B9FF
:104AE000204610F0D7FC03230020237101236071BE
:104AF000A071E071A060237110BD0120FCE700BF30
:104B000000200058251A06342DE9F0410546FEB074
:104B10000C464FF4FC726846544917F07FFB1DB9F0
:104B200001207EB0BDE8F081002CF9D02B68504AFE
:104B3000934208D002F17042934204D040F28B219C
:104B40004C48FDF7C7FD2368B3F5807F07D0B3F568
:104B5000007F04D04FF423714648FDF7BBFD636826
:104B6000013B012B04D940F28D214248FDF7B2FDF3
:104B7000A3683E2B04D940F28E213E48FDF7AAFDE2
:104B80003D4B1A6822F001021A60616801291AD1AE
:104B9000226842F404121A671A6842F001021A608D
:104BA000D3F8802042F0B04242F40412C3F88020CF
:104BB0002268B2F5807FD3F8842054D1012908D12E
:104BC00042F01F0207E00229AAD1226842F49012A3
:104BD000E1E742F4F8520026284DC3F884202B6800
:104BE000254F23F002032B607E602B69012043F0E8
:104BF00001032B61FFF792FA2E61D4F80880AB68AD
:104C00005DF8382023F4FE4343EA022343F02803EF
:104C1000AB60382108201602FFF71CFF1121E420A9
:104C2000FFF718FF0DEBC803D3F80480E3204FEA29
:104C3000182146F48036FFF70DFF46F02806E320E2
:104C40005FFA88F1FFF706FFAE6023680020B3F536
:104C5000807F0CBF07230F237B602B6843F0020388
:104C60002B6068605DE742F4F852A9E758C9023446
:104C700000200058251A06340060005800700058C3
:104C800070B50D461446064608B9012070BD002ACD
:104C9000FBD00368524A934208D002F1704293421B
:104CA00004D04FF444714F48FDF714FD022D04D990
:104CB00040F211314B48FDF70DFD236833F44033CA
:104CC00004D040F212314748FDF704FD022D23685D
:104CD0001ED033F4403304D040F216314148FDF782
:104CE000F9FC2368B3F5803F02D0B3F5003F0FD144
:104CF000A368222B0CD0183B152B04D83A4A22FA71
:104D000003F3DA0704D440F21B313648FDF7E2FC26
:104D10002368B3F5403F0FD06368222B0CD0183BBB
:104D2000152B04D8304A22FA03F3DB0704D440F2EF
:104D300021312C48FDF7CEFC3379013B012B2ED8D5
:104D40002268B2F5403F45D0B2F5003F2BD1002D8F
:104D50009BD113466168B2F5803F43EA0103316895
:104D600002D0B2F5003F04D1022D2BD0A26843EA55
:104D70000223EDB931681D4AD1F8040402401A43F8
:104D8000C1F804243368D3F8042122F48042C3F824
:104D90000421D3F8042242F00102C3F804220223C2
:104DA0000020337172E7022D14BF13460023D1E7B0
:104DB000012D07D1D1F804080C4A02401A43C1F86A
:104DC0000428DFE7D1F8042C22F03F021343C1F896
:104DD000043CD7E7002D7FF458AF1346CAE700BF65
:104DE00000200058251A0634C31B3C00C0C0FCFF3D
:104DF000032970B506460D46144604D94FF4727166
:104E00001548FDF767FC062C04D940F2C931124859
:104E1000FDF760FCF6B1032D08D8DFE805F00209C4
:104E20000F150E4B240244F001041C61002070BDDC
:104E30000A4B240244F001041C62F7E7074B2402EA
:104E400044F001041C63F1E7044B240244F0010424
:104E50001C64EBE70120EAE7251A063400600058DD
:104E6000F8B50D461446064608B90120F8BD002ADB
:104E7000FBD00368474A934208D002F17042934244
:104E800004D040F202414448FDF724FC022D04D92D
:104E900040F203414048FDF71DFC2368032B04D971
:104EA00040F204413C48FDF715FCBDB97119487941
:104EB0003379C0B2022BDAB2D7D110F0FB00D4D1D3
:104EC0004A713368276815BBD3F8002522F0030226
:104ED0003A43C3F8002501234B71C7E7A368092BA8
:104EE00004D940F207412C48FDF7F4FB63681A0728
:104EF00002D1B3F5004F04D34FF481612648FDF78A
:104F0000E9FB022DD2D1A368062BCFD9ADE7012D45
:104F1000D4E9014626D1D3F80029204D22F003021E
:104F20003A43C3F80029D3F8C02922F00F023243D4
:104F3000C3F8C029D3F8CC292A402243C3F8CC298E
:104F4000F21F012A06D8D3F8DC292A402243C3F8ED
:104F5000DC29C0E7092EBED1D3F8DC292A4042EA79
:104F60005402F4E7D3F8002D22F003023A43C3F8C9
:104F7000002DD3F8C02D22F00F023243C3F8C02D0C
:104F8000D3F8CC2D22F4FF4222F07F022243C3F853
:104F9000CC2DA0E700200058251A06340080FFFF22
:104FA00070B50C46054608B9012070BD0029FBD03C
:104FB0000B68013B042B04D940F23E415248FDF7F7
:104FC00089FB6369B3F5806F04D340F23F414E48DB
:104FD000FDF780FB2369B3F5806F04D34FF488613C
:104FE0004948FDF777FBE3680F2B04D940F24141B4
:104FF0004548FDF76FFB6368072B04D940F2424137
:105000004148FDF767FBA368042B04D940F24341F4
:105010003D48FDF75FFBA3690F2B04D940F24441E3
:105020003948FDF757FB2B79002BBDD02A68536810
:1050300043F001035360FFF76FF80646FFF76CF883
:10504000801BB0F57A7FAFD82B689A68D207F5D568
:1050500062681A602268013A042A11D8DFE802F077
:10506000031C2A384600D4E9022142EA01221A62CE
:10507000A26912045A62D4E9042142EA01429A6206
:105080005A68002022F001025A60D3F8F02342F05F
:105090002002C3F8F02388E7D4E9022142EA012282
:1050A0001A63A26912045A63D4E9042142EA014254
:1050B0009A63E5E7D4E9022142EA01221A64A2696F
:1050C00012045A64D4E9042142EA01429A64D7E7FF
:1050D000D4E9022142EA01221A65A26912045A6542
:1050E000D4E9042142EA01429A65C9E7D4E90221E0
:1050F00042EA01221A66A26912045A66D4E904211E
:1051000042EA01429A66BBE7251A06342DE9F041CE
:10511000022904460D4616461F46DDF8188004D9BC
:105120004FF4C2611A48FDF7D5FA032E04D940F2B4
:1051300011611748FDF7CEFA38F0040304D040F2AD
:1051400012611348FDF7C6FA1CB901263046BDE8C6
:10515000F0813A07F9D123686219D3F80432527901
:10516000012AF2D1DB07F0D5324629462046FFF767
:10517000A9FB06460028E8D12946204643463A4680
:10518000FFF71BFC29462046FFF742FCDEE700BF85
:10519000251A06347047704770477047036870B52A
:1051A000D3F8F86304467204D3F8F05312D56904B7
:1051B00010D5D3F8F023002122F48042C3F8F02365
:1051C000826842F0040282604FF48042C3F8FC23FC
:1051D000FFF7E1FF72050AD56B0508D54FF4806231
:1051E000236800212046C3F8FC2310F033F9B005F2
:1051F00016D5A90514D52368D3F80025520707D57D
:10520000D3F8F02322F40642C3F8F023012262719E
:105210004FF4007200212046C3F8FC2310F02AF955
:10522000F3050AD5E80508D54FF4807223680021FC
:105230002046C3F8FC23FFF7ADFF310416D52A043E
:1052400014D523680021D3F8F023204622F400422D
:10525000C3F8F023A26842F00802A2604FF40042B3
:10526000C3F8FC2304236371FFF796FFF3030AD509
:10527000E80308D54FF48032236801212046C3F8A3
:10528000FC23FFF787FF71030AD56A0308D54FF4A3
:105290008022236801212046C3F8FC2310F0DAF8AD
:1052A000B30316D5A80314D52368D3F800295107F2
:1052B00007D5D3F8F02322F40602C3F8F023012225
:1052C000A2714FF4003201212046C3F8FC2310F0F4
:1052D000D1F8320216D52B0214D523680121D3F858
:1052E000F023204622F40002C3F8F023A26842F023
:1052F0001002A2604FF40002C3F8FC230423A37140
:10530000FFF74AFFF0010AD5E90108D54FF0807296
:10531000236802212046C3F8FC23FFF73BFF7201FC
:105320000AD56B0108D54FF0806223680221204620
:10533000C3F8FC2310F08EF8B00116D5A90114D5DE
:105340002368D3F8002D520707D5D3F8F02322F0B5
:105350000642C3F8F0230122E2714FF000720221ED
:105360002046C3F8FC2310F085F8002E16DA002D35
:1053700014DA23680221D3F8F023204622F00042F9
:10538000C3F8F023A26842F02002A2604FF000426E
:10539000C3F8FC230423E371FFF7FEFE700614D567
:1053A000690612D523682046D3F8F02322F0400284
:1053B000C3F8F023A26842F00202A2604022C3F8C0
:1053C000FC2304232371FFF7E8FEB20614D5AB06D5
:1053D00012D523682046D3F8F02322F02002C3F828
:1053E000F023A26842F00102A2602022C3F8FC234D
:1053F00004232371FFF7D1FE70BD704770477047DB
:105400007047704770477047B54B2DE9F041D3F8AE
:1054100090600446B202D3F89480D3F88050D3F859
:1054200084700DD5A9020BD5D3F8802022F4001288
:10543000C3F880204FF40012C3F80021FFF7DEFF0D
:10544000320715D52B0713D523680321D3F8003570
:10545000204613F0040FA24B1EBFD3F8802022F089
:105460000802C3F880200822C3F80021FFF7CBFF11
:10547000700715D5690713D523680221D3F80035C5
:10548000204613F0040F964B1EBFD3F8802022F065
:105490000402C3F880200422C3F80021FFF7B3FF01
:1054A000B20715D5AB0713D523680121D3F8003512
:1054B000204613F0040F8A4B1EBFD3F8802022F041
:1054C0000202C3F880200222C3F80021FFF79BFFED
:1054D000F00715D5E90713D523680021D3F8003567
:1054E000204613F0040F7E4B1EBFD3F8802022F01D
:1054F0000102C3F880200122C3F80021FFF783FFD7
:10550000320416D52B0414D523680321D3F80035B3
:10551000204613F0040F724B1EBFD3F8802022F4F4
:105520000042C3F880204FF40042C3F80021FFF787
:1055300067FF700416D5690414D523680221D3F8D7
:105540000035204613F0040F654B1EBFD3F88020B2
:1055500022F48042C3F880204FF48042C3F8002137
:10556000FFF74EFFB20416D5AB0414D52368012112
:10557000D3F80035204613F0040F594B1EBFD3F863
:10558000802022F40052C3F880204FF40052C3F868
:105590000021FFF735FFF00416D5E90414D5236880
:1055A0000021D3F80035204613F0040F4C4B1EBFEA
:1055B000D3F8802022F48052C3F880204FF4805228
:1055C000C3F80021FFF71CFF320516D52B0514D5B3
:1055D00023680321D3F80035204613F0040F404B15
:1055E0001EBFD3F8802022F40062C3F880204FF45D
:1055F0000062C3F80021FFF704FF700516D56905A6
:1056000014D523680221D3F80035204613F0040F87
:10561000334B1EBFD3F8802022F48062C3F8802071
:105620004FF48062C3F80021FFF7EBFEB20516D5F8
:10563000AB0514D523680121D3F80035204613F0BB
:10564000040F274B1EBFD3F8802022F40072C3F84A
:1056500080204FF40072C3F80021FFF7D2FEF0055E
:1056600016D5E90514D523680021D3F80035204666
:1056700013F0040F1A4B1EBFD3F8802022F480725F
:10568000C3F880204FF48072C3F80021FFF7B9FE01
:10569000320615D52B0613D523680321D3F8003520
:1056A000204613F0040F0E4B1EBFD3F8802022F0CB
:1056B0008002C3F880208022C3F80021FFF7A2FEF9
:1056C000700619D5690617D523680221D3F800356D
:1056D000204613F0040F024B18BFD3F8802001E0DE
:1056E000006000581CBF22F04002C3F88020402216
:1056F000C3F80021FFF786FEB20615D5AB0613D519
:1057000023680121D3F80035204613F0040FB94B6C
:105710001EBFD3F8802022F02002C3F88020202270
:10572000C3F80021FFF76EFEF00615D5E90613D584
:1057300023680021D3F80035204613F0040FAD4B49
:105740001EBFD3F8802022F01002C3F88020102260
:10575000C3F80021FFF756FE720013D56B0011D578
:10576000A44B2046D3F8802022F08042C3F880204A
:105770004FF08042C3F80021A36843F48073A36014
:10578000FFF70BFDB00013D5A90011D5994B2046AA
:10579000D3F8802022F00052C3F880204FF000524E
:1057A000C3F80021A36843F40073A360FFF7F5FC7E
:1057B000F20013D5EB0011D58E4B2046D3F8802094
:1057C00022F08052C3F880204FF08052C3F80021AD
:1057D000A36843F48063A360FFF7DFFC300113D5B7
:1057E000290111D5834B2046D3F8802022F0006296
:1057F000C3F880204FF00062C3F80021A36843F48F
:105800000063A360FFF7C9FC720113D56B0111D5CA
:10581000784B2046D3F8802022F08062C3F88020A5
:105820004FF08062C3F80021A36843F48053A36063
:10583000FFF7B3FCB00113D5A90111D56D4B20467C
:10584000D3F8802022F00072C3F880204FF000725D
:10585000C3F80021A36843F40053A360FFF79DFC45
:10586000F20113D5EB0111D5624B2046D3F880200D
:1058700022F08072C3F880204FF08072C3F80021BC
:10588000A36843F48043A360FFF787FC18F0010F7F
:1058900014D0F80712D50121564B2046D3F88020AA
:1058A00022F00102C3F88020C3F80411A36843F476
:1058B0000023A36004232371FFF79FFD18F0020F5C
:1058C00015D0B90713D54B4B0121D3F880202046C2
:1058D00022F00202C3F880200222C3F80421A36848
:1058E00043F48023A36004232371FFF786FD18F09F
:1058F000040F13D07A0711D53E4B0121D3F8802035
:10590000204622F00402C3F880200422C3F80421B8
:10591000A36843F40033A360FFF76FFD18F0080F8E
:1059200013D03B0711D5334B0121D3F880202046FB
:1059300022F00802C3F880200822C3F80421A368DB
:1059400043F48033A360FFF758FD18F0100F13D015
:10595000F80611D5274B0121D3F88020204622F0EC
:105960001002C3F880201022C3F80421A36843F476
:105970000043A360FFF741FD18F4807F16D0F905BE
:1059800014D51C4B0221D3F88020204622F48072CB
:10599000C3F880204FF48072C3F80421A36843F455
:1059A0000023A36004232371FFF727FD18F4007F71
:1059B00016D0BA0514D50F4B0221D3F8802020460B
:1059C00022F40072C3F880204FF40072C3F804215F
:1059D000A36843F48023A36004232371FFF70DFD24
:1059E00018F4806F17D07B0515D5024B0221D3F830
:1059F000802001E000600058204622F48062C3F855
:105A000080204FF48062C3F80421A36843F400337C
:105A1000A360FFF7F2FC18F4006F14D0380512D51C
:105A20001F4B0221D3F88020204622F40062C3F8E5
:105A300080204FF40062C3F80421A36843F480334C
:105A4000A360FFF7DAFC18F4805F14D0F90412D5D4
:105A5000134B0221D3F88020204622F48052C3F851
:105A600080204FF48052C3F80421A36843F400431C
:105A7000A360FFF7C2FCF2030FD5EB030DD5084B73
:105A80002046D3F8802022F48032C3F880204FF4DF
:105A90008032C3F80021FFF7B2FCBDE8F08100BFFF
:105AA0000060005870B50E461446054608B901203E
:105AB00070BD002AFBD0022904D940F6EF614A48A4
:105AC000FCF708FE236933F0804304D04FF46F6184
:105AD0004548FCF7FFFD6368B3F5805F04D340F6EB
