:0200000470107A
:1000000053544D32000000000000000000000000CA
:1000100000000000000000000000000000000000E0
:1000200000000000000000000000000000000000D0
:1000300000000000000000000000000000000000C0
:1000400000000000000000000000000000000000B0
:1000500000000000000000000000000000000000A0
:1000600000000000EEA3410300030200E0A9070026
:10007000C971023400000000FFFFFFFF0000000014
:100080000000000000000080A0010000000000004F
:100090000000000000000000000000000000000060
:1000A0005354FFFFA0010000694CC884E0AAFCD9AA
:1000B000726F11B0EBCE141683D8B2DF0BB6FC60B2
:1000C000B37F330F21AFFA4E8DFD508ED0EEC8EEC8
:1000D00025EA6B34BA28923E116D81D19C1D89AE00
:1000E00002921074D8598B07A01C7FA46E6340D76E
:1000F000432AEB743D7BB41DAAFEAE66068DFCE57B
:10010000CD98AE47489EA49B76B821E16190EB83E1
:10011000D1B79FF892111CB308E486AD688A5A5B88
:10012000F043BE8F223DC3979C5558A8A0EB6EA804
:10013000312C28183B0E0DC494B99BD0B5C99C50E6
:100140003C72C5B68D678E3E0CAF9D50341E036D5C
:1001500086D384F3E9387DB7697E1D9994C58BE514
:100160002D7541229C3EFCB57BBDC1A6DF2571EFFC
:1001700065586F42E4877B18244ABE316006B52B70
:10018000A060A9B16EB0D9621CB9263700B1E103F5
:10019000235AC4C0E68AC8723AF32766CFE39EF4B6
:1001A00091B5E494432881ADD44C67BCF3765B7E73
:1001B00053BE3E82F0FEB3581489BEA16FF4F6C55B
:1001C00078F4A1D088673A70E971023684A41829BE
:1001D0009EC77084054BE98304C1A606A927FE14B7
:1001E000F5CC2E41B74AADE933DA63966F1E094963
:1001F00048D1B8E64E04858B48A9F751A49BD0FF9F
:1002000067B9613AFAAFE436CBB723461A2847F705
:10021000D9DADF9EA5546402D1251F1735D01AAB59
:10022000AC5EB49F261323BD27AB4E5F5A441F72AA
:10023000C262A5716D49CB8568CE78ADBA7F93DC7B
:1002400000000000000000000000000000000000AE
:10025000000000000000000000000000000000009E
:10026000000000000000000000000000000000008E
:10027000000000000000000000000000000000007E
:10028000000000000000000000000000000000006E
:10029000000000000000000000000000000000005E
:1002A000000000000000000000000000000000004E
:1002B000000000000000000000000000000000003E
:1002C000000000000000000000000000000000002E
:1002D000000000000000000000000000000000001E
:1002E000000000000000000000000000000000000E
:1002F00000000000000000000000000000000000FE
:1003000000000000000000000000000000000000ED
:1003100000000000000000000000000000000000DD
:1003200000000000000000000000000000000000CD
:1003300000000000000000000000000000000000BD
:1003400000000000000000000000000000000000AD
:10035000000000000000000000000000000000009D
:10036000000000000000000000000000000000008D
:10037000000000000000000000000000000000007D
:10038000000000000000000000000000000000006D
:10039000000000000000000000000000000000005D
:1003A000000000000000000000000000000000004D
:1003B000000000000000000000000000000000003D
:1003C000000000000000000000000000000000002D
:1003D000000000000000000000000000000000001D
:1003E000000000000000000000000000000000000D
:1003F00000000000000000000000000000000000FD
:1004000000001B34C9710234DD3A00342572023415
:10041000DF3A0034E13A003425720234E33A003422
:10042000000000000000000000000000E53A003479
:10043000E73A00340000000075080034B9090034C0
:100440002572023400000000257202342572023445
:100450002572023425720234257202342572023468
:100460002572023400000000257202342572023425
:10047000257202342D26003425720234000000005B
:100480002572023400000000257202342572023405
:100490002572023425720234257202342572023428
:1004A0002572023425720234257202342572023418
:1004B0002572023425720234257202342572023408
:1004C00025720234257202342572023425720234F8
:1004D00025720234257202342572023425720234E8
:1004E00025720234000000002572023425720234A5
:1004F000257202342572023425720234E93A00343E
:10050000F73A003400000000000000000000000086
:1005100025720234D5390134257202342572023431
:100520002572023425720234257202342572023497
:100530004D3400342572023481BC013425720234FA
:100540002572023425720234257202342572023477
:100550002572023425720234257202342572023467
:100560002572023425720234257202342572023457
:100570002572023425720234257202342572023447
:100580002572023425720234257202342572023437
:100590002572023425720234257202342572023427
:1005A0002572023425720234257202342572023417
:1005B0002572023425720234257202342572023407
:1005C00025720234257202342572023425720234F7
:1005D00025720234257202342572023425720234E7
:1005E00025720234257202342572023425720234D7
:1005F00025720234257202342572023425720234C7
:1006000025720234257202342572023425720234B6
:1006100025720234257202342572023425720234A6
:100620002572023425720234257202342572023496
:100630002572023425720234257202342572023486
:100640002572023425720234257202342572023476
:100650002572023425720234257202342572023466
:100660002572023425720234257202342572023456
:100670002572023425720234257202342572023446
:100680002572023425720234257202342572023436
:100690002572023425720234257202342572023426
:1006A0002572023425720234257202342572023416
:1006B0002572023425720234257202342572023406
:1006C00025720234257202342572023425720234F6
:1006D00025720234257202342572023425720234E6
:1006E00025720234257202342572023425720234D6
:1006F00025720234257202342572023425720234C6
:1007000025720234053B003425720234257202340E
:1007100025720234257202342572023425720234A5
:100720002572023425720234257202342572023495
:100730002572023425720234257202342572023485
:10074000000000002572023425720234000000000F
:1007500010B5054C237833B9044B13B10448AFF3FB
:1007600000800123237010BD20AC0734000000007E
:1007700008C1023408B5034B1BB103490348AFF36A
:10078000008008BD0000000024AC073408C102341A
:100790002249086800F101000860214B1A683AB14B
:1007A000A2F101021A601AB91E4B4FF00100186045
:1007B0001D490868026822B11C4B4FF001021A6003
:1007C00008E000F104001A4B1A68904201D1194B5D
:1007D00018680860134B1A6812B914490868C8B140
:1007E00001B51249086808B119F0DAF90D4B1A6819
:1007F00072B119F0DBFE1048016849B90F48016871
:100800000F4A13680F484FF08052994200D002609F
:10081000BDE80140BFF34F8F7047000018EF0C3464
:10082000A8E90C3414EF0C3488EE0C3484EE0C344C
:100830008CEE0C3490EE0C3424EF0C3450F00C346D
:100840004CF00C3404ED00E04FF00000324A106030
:10085000EFF3148020F0040080F3148862B64FF0A8
:1008600080504FF0E021C1F8040DBFF34F8FBFF36C
:100870006F8FFEE772B601B51AF0B6FEBDE8014013
:1008800062B62648264A4FF00003016891B1036022
:10089000EFF3098C2CE9F00F1EF0100F01D12CEDB5
:1008A000108A204C4CF804EDC1F808C025680DB141
:1008B0008D61236072B61168F1B1016062B64F6854
:1008C000184C8D6907F101074F60256003B41AF0D9
:1008D00061FE03BCD1F80CC08CF30B88D1F808C0C2
:1008E0005CF804EB1EF0100F01D1BCEC108ABCE8E0
:1008F000F00F8CF30988704772B61168016009B96E
:1009000062B6F9E74FF000674FF0E028C8F8047DC1
:1009100062B6D4E77047000024EF0C3450F00C347A
:100920004CF00C34A8E90C34026922F00702A2F161
:1009300044026FF0020313604FF0000353609360B2
:10094000D360136153619361D36113625362936205
:10095000D362136353634FF0FF339363D1634FF05C
:10096000807313648260704772B61848184901F1A9
:10097000040101604FF0E0201649C0F8081D164838
:10098000016841F0010101601448124909680160E1
:100990004FF0E020124941614FF0070101614FF033
:1009A0000001C0F8181D4FF07F41C0F81C1D0D4913
:1009B000C0F8201D704700BF01B51AF059FEFFF7BF
:1009C000E7FE1AF0B3FEBDE80140704758F00C3462
:1009D00090860D3400040034001000E054F00C3414
:1009E000FF340C000000FF40034613F8012B002ADF
:1009F000FBD1181A0138704790EDAD6A30B52DED76
:100A0000108B90EDA87BB5EEC06A87B08DED027BB0
:100A1000002390EDA47BF1EE10FA91ED015A91EDD7
:100A2000004A91ED02FB91ED04EB044690ED123B80
:100A300090EDAACB90ED16AB8DED047B90EDA6BBAF
:100A400080F8603009DCD0F8C832D14898474FF0C0
:100A5000FF3007B0BDEC108B30BDB8EE455B9FEDAD
:100A6000BE7BB8EE444B25EE077BB4EEC47BF1EEC3
:100A700010FA0FDD90ED1C7B9FEDB92B37EE022BAA
:100A80009FEDB97BB4EEC72BF1EE10FA37FE027B77
:100A900080ED1C7B9FEDB67B25EE075BB4EEC45B5F
:100AA000F1EE10FA10D594ED1C7B9FEDAD5B37EEA7
:100AB000457B9FEDB15BB4EEC57BF1EE10FA58BFFC
:100AC000B0EE475B84ED1C5B83EE0C8BBCEEC88BF9
:100AD000B8EE488B94F8505028EE0C8B012DB7EEF1
:100AE000C66A40F0AC809FEDA67B3FEE4E5B85EE84
:100AF00007DB3FEE0E5B85EE079BB0EECD7BB4EEE1
:100B0000C76BF1EE10FAB0EEC95B1FDBB4EEC56B3C
:100B1000F1EE10FA1ADB002384F8783094ED1A7B9A
:100B2000B5EEC07BF1EE10FA40F33481012384F876
:100B300060309DED027BB4EEC7ABF1EE10FA40F1F0
:100B40003C819DED047B3AEE07BB28E1B4EEC56B1A
:100B5000F1EE10FA0CD589EE0D5B94EDAE6AB0EEB5
:100B6000C55BB7EEC66AB4EEC65BF1EE10FAD5DA35
:100B7000F7EECA0BB7EEC70B2BF062F9B2EE047BAF
:100B8000B7EEC00A20EE070BFCEEC87BB0EECE6BD2
:100B9000CDED017AB0EECF7BB4EEC67BF1EE10FA6C
:100BA00062DCB5EEC0EBF1EE10FA62D538EE000B68
:100BB00094ED3C7BB4EEC07BF1EE10FA03D5B0EEC1
:100BC0004BABB0EE470B94ED3A7BB4EEC07BF1EE4D
:100BD00010FA03DDB0EE4BABB0EE470B80EE0C8BA2
:100BE000BCEEC88BB8EE488B012D2CEE088B16D1CD
:100BF000B4F8E030022B3FD8DDED017AB8EE677B28
:100C000004EBC30282ED207B82ED268B04EB031202
:100C1000013382ED2CDB82ED2E9BA4F8E03094F8BA
:100C20007830012B07D0FCEEC87B17EE903A019A82
:100C300093423FF473AF012384F860306EE7B0EE67
:100C4000CF7BB0EECE5BB4EE475BF1EE10FA35FE33
:100C5000077BB4EEC67BF1EE10FA7FF65FAF9FED37
:100C60004A9BB0EE49DB83E7B5EEC0FBF1EE10FA2C
:100C70009CD538EE400B9BE794ED2A7B94EDAF6A50
:100C800038EE477BB7EEC66AB0EEC77BB4EEC67BE4
:100C9000F1EE10FA56DB94ED287B38EE477BB0EE90
:100CA000C77BB4EEC76BF1EE10FA4BDD94ED320B5F
:100CB00094ED307B39EE400B3DEE477B20EE000B90
:100CC000A7EE070B2BF084F894EDB07AB7EEC77A55
:100CD000B4EEC70BF1EE10FA34D5DDED017AB8EEC3
:100CE000678B84F8785094F87830002B97D11022D5
:100CF00004F1880104F1800027F092FB102204F136
:100D0000A00104F1980027F08BFBD4E93023DDED3E
:100D1000017AB8EE677BC4E92C23D4E9322384ED51
:100D2000247BC4E92E23D4E9342384ED2A8BC4E93F
:100D30003023D4E9362384ED34DB84ED369BC4E9DB
:100D400032236CE794F87830012B04BF002384F839
:100D50007830C8E7AFF300809A9999999999A93F9B
:100D60007B14AE47E17A843F343333333333C33FAC
:100D7000333333333333C33F111111111111B13FE9
:100D8000CD3B7F669EA0F63F000000000000000003
:100D9000E09E073494F86030002B7FF4CAAE88EEF2
:100DA0000C7BBCEEC77BB8EE477B27EE0C7B84ED5B
:100DB00016BB84ED127B01204BE69DED02BBEEE7F6
:100DC00090ED1A6BB5EEC06B90ED124BF1EE10FA90
:100DD00090EDAA5BB0EE467BDFBF84EE057BBCEEF8
:100DE000C77BB8EE477B27EE057BB7EEC77B90ED60
:100DF0003C5BB7EEC74AB4EEC54BF1EE10FAC8BF84
:100E0000B7EEC57B90ED3A5BB7EEC74AB4EEC54B83
:100E1000F1EE10FA48BFB7EEC57BB7EEC75AD0F86F
:100E2000743230B580ED125B93ED005AD0EDAC7AA0
:100E3000B4EEC75AF1EE675AF1EE10FA4FF0000126
:100E4000B0F8F83075FEA77A013B8AB2934205D814
:100E5000442202FB030303F5907311E000EB8204CC
:100E6000D4ED445A77EEA55AF4EEC75AF1EE10FAD3
:100E700001F10101E9DB442303FB020202F5907357
:100E8000B5EEC06BF1EE10FAC0F8743205DC93EDEC
:100E9000007AB7EEC77A80ED127B5A6803F1380109
:100EA00042609A6803F124048260DA68C2601A69B9
:100EB000026100F138025D690C334561DD680C3078
:100EC000C5601D69A342056151F8045B42F8045BEB
:100ED000F1D1012030BD10B5044690B070B10023AF
:100EE000084C40212370C4F8C802074B6846074AE3
:100EF0002AF03AFF6846D4F8C8329847204610B026
:100F000010BD00BF40AC0734A8A60734209F0734AB
:100F1000002814BF01204FF0FF30704780ED000A19
:100F200030B50C6844604C6884608C68C460C968E3
:100F300002F12404016100F1380115680C324561A9
:100F400052F8085C0C30C56052F8045CA24205619E
:100F500053F8045B41F8045BEFD130BD2DE9F04F4D
:100F60002DED068B0E46B0EE409BB0EE418B1D463C
:100F70000446C7B0002800F08F819FEDCBAB80ED19
:100F800012AB0020CE494FF00008C4E91601C4E9B5
:100F9000A601C4E9AA01CB49DFF85C93C4F8B012FA
:100FA0004FF07E51C4F8B4124FF07C51C4E91A8955
:100FB0000FF2FC29D9E90089C4E91C89C4E9A48994
:100FC0004FF00008C4F8B812BF49DFF83093C4F8F6
:100FD000BC124FF07F510023C4E9A88901274FF0CC
:100FE0000008C4F8C012711EDFF8149388B20428F8
:100FF000C4E9A0890FF2C029D9E9008984F86030DA
:10100000C4E9A289A4F8E03084F87830A4F87872B2
:1010100014D905234FF48071AC4A06A82AF0A4FE27
:10102000D4F8C83206A8984784F85070204647B0D4
:10103000BDEC068BBDE8F04FFFF7C2BE95ED007A20
:10104000B7EEC77AB4EEC70BF1EE10FA12DDD4F8A2
:10105000C8329F48984795ED007AB7EEC77A8DED74
:10106000009B8DED027B9B4A4FF4807106A82AF00D
:101070007BFED5E74FF0440C0CFB065818ED117AB7
:10108000B7EEC77AB4EEC71BF1EE10FA41D5D4F82B
:10109000C8329148984798ED007AB7EEC77A8DED3F
:1010A000008B8DED027B8D4ADEE70CFB08F705EB2C
:1010B000070944372F4499ED007AD7ED007AB4EE52
:1010C000E77AF1EE10FA08F1010A00F1010021DBE4
:1010D000D4F8C8328248984797ED007AB7EEC77ABD
:1010E0008DED047BCDF808A099ED007AB7EEC77AB4
:1010F00043468DED007B7B4A4FF4807106A82AF0B1
:1011000033FED4F8C83206A89847012384F850303B
:101110008CE718461FFA80F84145C6D800234FF0E7
:10112000440CB01E9FB2B94239D884ED3A9B84ED8D
:101130003C8B0020A4F8F86083B2994200F10100D2
:1011400000F28B800027B84604F1FC0A04F5907980
:1011500005EB070B09EB0700442259461AF0F2FB96
:10116000DBF8003008F101084AF8043B1FFA88F365
:101170009E4207F14407EBD8731E9BB2002E03F189
:10118000010314BF1A460122C4F8749204F5B27127
:10119000013A6AD1012384F85030237046E702EB0C
:1011A0008709B842D9ED007A4FEA870807F1010AAA
:1011B0001ED908F10408904498ED007AB4EEE77A5D
:1011C000F1EE10FA14D8D4F8C8324748984798ED91
:1011D000007AB7EEC77A8DED047BCDF808A099EDC3
:1011E000007AB7EEC77A3B468DED007B3F4A83E736
:1011F0000CFB07F805EB080A9AED007AB4EEE77AE3
:10120000F1EE10FA08F14408A84408DA98ED007AE3
:10121000B4EEE77AF1EE10FA03F1010382D8D4F8C4
:10122000C8323348984798ED007AB7EEC77A8DED0B
:10123000047B9AED007AB7EEC77A8DED027B99EDCB
:10124000007AB7EEC77A3B468DED007B4FF4807194
:10125000284A06A82AF088FD53E702EB83073F6877
:1012600004EB8303C3F8107166E7D4F8743291ED90
:10127000006A93ED007AB7EEC66AB7EEC77A36EE2B
:101280004A6B37EE4A7BB4EEC76BF1EE10FA48BFFB
:10129000C4F8741244317BE74FF0FF3047B0BDEC27
:1012A000068BBDE8F08F00BF000000000088B3404F
:1012B0009A9999999999B93F0000000000A06E4051
:1012C0000000F03F0000484200002F43309F0734E9
:1012D000749F0734FB9F073459A00734E1A00734FB
:1012E0003EA10734A2A10734FAA1073469A207344A
:1012F000D3A207342AA307340000F0BF000008403F
:101300000000244030B5054614468DB052B9D0F8DF
:10131000C8321D489847D5F8C8321C48984720461F
:101320000DB030BD93ED042B93ED021B93ED000B3C
:101330000AAA08A906A800F02FF8DDE90823CDE9DC
:101340000223DDE90A23CDE9042301239842044660
:10135000CDE90033DFD169462846FFF74DFB012870
:10136000044603D0D5F8C8320948D7E795F860306D
:10137000012BD4D12846FFF723FD01280446CED007
:10138000D5F8C8320348C9E7B0A3073411A407341D
:101390003AA407346EA40734B5EEC00BF1EE10FA90
:1013A0001FB509D4B5EEC01BF1EE10FA04D4B5EEAA
:1013B000C02BF1EE10FA0DD58DED022B8DED001B3B
:1013C00053EC102B444826F0ABFE4FF0FF3005B035
:1013D0005DF804FB9FED327BB4EEC70BF1EE10FA23
:1013E00009DCB4EEC71BF1EE10FA04DCB4EEC72B37
:1013F000F1EE10FA07DD8DED022B8DED001B53ECA5
:10140000102B3648DFE728B189B1B2B93449354BE2
:10141000084607E071B133493148002A304A314B60
:1014200018BF13460246304826F07AFECDE72C4915
:101430002C48F2E72B490846EFE79FED1B7B9FED19
:101440001C6B21EE077BB3EE005BA0EE067B9FEDED
:101450001A6BA2EE057BA7EE065B9FED197B80ED74
:10146000005B27EE417BBBEE0A5BA0EE057B9FEDA8
:10147000165BA2EE057B27EE067B81ED007B9FEDE0
:10148000147B27EE411BB2EE047BA0EE051BA2EEFF
:10149000471B21EE061B012082ED001B97E700BFD2
:1014A0000000000000E06F400000000000A063406A
:1014B0000000000000804740000000000000703F76
:1014C00000000000008055400000000000005C406B
:1014D0000000000000805940A3A40734E1A40734B1
:1014E000153406341334063421A5073400000000F7
:1014F00010B5044690B060B10023074C4021237022
:10150000A065064B6846064A2AF02EFC6846A36D85
:101510009847204610B010BD10AF0734AEA6073470
:101520006BA50734002814BF01204FF0FF3070472F
:1015300038220A23C0E9042364232D227821C0E93C
:10154000063240F2DC5230B5C0E9081241F2707444
:1015500042F6E062C0E90A420BA5D5E90045052242
:101560004FF0000C026548F2E802C0E910C2012207
:10157000C0E90C4506A5D5E90045C0E91223C0E93C
:101580000E4530BDAFF3008000000040E17A943F8B
:10159000000000E04D62703F10B5044620B1FFF737
:1015A000C7FF0120207010BD4FF0FF30FBE72DE991
:1015B000F0410E460446002800F0E1800178012940
:1015C0000BD102210170A56CC4E90126B54208D2F5
:1015D000616C914205D9A5604CE00229F3D000204E
:1015E00049E0D4F810C0B6EE005B07EE90CAB8EE42
:1015F000676A07EE903AB8EEE77BB7EEC66A37EE59
:10160000057B86EE070B216DB7EEC00B8B424BD2EC
:10161000F0EE007AB4EEE70AF1EE10FA44D4616C11
:10162000B7EE007A8A4220D2012A134638BF01233E
:1016300007EE903AF8EEE77A67EE807AFDEEE77A09
:1016400017EE903A8B42C1BF07EE901AB8EEE76AE8
:1016500007EE902AF8EE676AC3BFC6EE267A0B46FD
:1016600080EE270AB0EE470A6360B4EEC70AF1EED7
:1016700010FA02DC0120BDE8F081B7EEC00A28F0C4
:10168000A3FFB3EE047B20EE070B9FED3F7B20EE24
:10169000070BBDEEC00B10EE103AE26C33449342E0
:1016A000D4BFA360A260E5E7ACEB0307E16987EA7A
:1016B000E770A0EBE770884247D8606AD4F814E07E
:1016C000A1690EEB0C08984507FB01F143D207EE28
:1016D000900A9FED2F7AF8EEE77A67EE877A07EEA9
:1016E000101AF1EE676AB8EEC77AB4EEE67AF1EE58
:1016F00010FA04D5FDEEE77A17EE903A5942002928
:10170000B8D0B54232D1606C904201D800292DDAB0
:1017100002FB077707EE902A06EE907A0029B8EED2
:10172000E77BB8EEE66B1EDA94ED0E5BA5EE067B6A
:10173000BDEEC77B17EE102A236C9A42B8BF1A463B
:101740008242D4BF6260606094E7216A88422CBF05
:10175000E06AA06AB2E7ACEB0E0C9C458ADD8142E0
:10176000A8BF0146CBE794ED0C5BDFE70E44B54222
:101770003FF731AFE56CB542A8BF35462BE74FF0D8
:10178000FF3078E7AFF300800000000000408F409A
:101790009A99593F81F0004102E000BF83F0004375
:1017A00030B54FEA41044FEA430594EA050F08BFFC
:1017B00090EA020F1FBF54EA000C55EA020C7FEAC0
:1017C000645C7FEA655C00F0E2804FEA5454D4EB3D
:1017D0005555B8BF6D420CDD2C4480EA020281EA07
:1017E000030382EA000083EA010180EA020281EA3F
:1017F0000303362D88BF30BD11F0004F4FEA013191
:101800004FF4801C4CEA113102D0404261EB41019F
:1018100013F0004F4FEA03334CEA133302D0524225
:1018200063EB430394EA050F00F0A780A4F10104E1
:10183000D5F1200E0DDB02FA0EFC22FA05F280181B
:1018400041F1000103FA0EF2801843FA05F3594101
:101850000EE0A5F120050EF1200E012A03FA0EFC80
:1018600028BF4CF0020C43FA05F3C01851EBE371AA
:1018700001F0004507D54FF0000EDCF1000C7EEBC7
:1018800000006EEB0101B1F5801F1BD3B1F5001F05
:101890000CD349085FEA30004FEA3C0C04F1010424
:1018A0004FEA445212F5800F80F09A80BCF1004F4D
:1018B00008BF5FEA500C50F1000041EB045141EACF
:1018C000050130BD5FEA4C0C404141EB0101013C98
:1018D00028BFB1F5801FE9D291F0000F04BF014687
:1018E0000020B1FA81F308BF2033A3F10B03B3F159
:1018F00020020CDA0C3208DD02F1140CC2F10C02E9
:1019000001FA0CF021FA02F10CE002F11402D8BF46
:10191000C2F1200C01FA02F120FA0CFCDCBF41EA12
:101920000C019040E41AA2BF01EB0451294330BDE1
:101930006FEA04041F3C1CDA0C340EDC04F11404BE
:10194000C4F1200220FA04F001FA02F340EA030095
:1019500021FA04F345EA030130BDC4F10C04C4F1DB
:10196000200220FA02F001FA04F340EA03002946BB
:1019700030BD21FA04F0294630BD94F0000F83F405
:10198000801306BF81F480110134013D4EE77FEAE8
:10199000645C18BF7FEA655C29D094EA050F08BF34
:1019A00090EA020F05D054EA000C04BF1946104615
:1019B00030BD91EA030F1EBF0021002030BD5FEA59
:1019C000545C05D14000494128BF41F0004130BD81
:1019D00014F580043CBF01F5801130BD01F00045D5
:1019E00045F0FE4141F470014FF0000030BD7FEA48
:1019F000645C1ABF194610467FEA655C1CBF0B4643
:101A0000024650EA013406BF52EA033591EA030F59
:101A100041F4002130BD00BF90F0000F04BF002151
:101A2000704730B54FF4806404F132044FF0000584
:101A30004FF0000150E700BF90F0000F04BF0021FD
:101A4000704730B54FF4806404F1320410F0004563
:101A500048BF40424FF000013EE700BF42004FEA5E
:101A6000E2014FEA31014FEA02701FBF12F07F43DB
:101A700093F07F4F81F06051704732F07F4208BF92
:101A8000704793F07F4F04BF41F40021704730B599
:101A90004FF4607401F0004521F000411CE700BFE5
:101AA00050EA010208BF704730B54FF000050AE068
:101AB00050EA010208BF704730B511F0004502D569
:101AC000404261EB41014FF4806404F132045FEA6B
:101AD000915C3FF4D8AE4FF003025FEADC0C18BF14
:101AE00003325FEADC0C18BF033202EBDC02C2F106
:101AF000200300FA03FC20FA02F001FA03FE40EA98
:101B00000E0021FA02F11444BDE600BF80F000404F
:101B100002E000BF81F0004142001FBF5FEA4103C5
:101B200092EA030F7FEA226C7FEA236C6AD04FEAC5
:101B30001262D2EB1363C1BFD2184140484041400A
:101B4000B8BF5B42192B88BF704710F0004F40F4BC
:101B5000000020F07F4018BF404211F0004F41F4D8
:101B6000000121F07F4118BF494292EA030F3FD0A4
:101B7000A2F1010241FA03FC10EB0C00C3F12003B7
:101B800001FA03F100F0004302D5494260EB400046
:101B9000B0F5000F13D3B0F1807F06D340084FEAB1
:101BA000310102F10102FE2A51D2B1F1004F40EBA6
:101BB000C25008BF20F0010040EA0300704749000E
:101BC00040EB0000013A28BFB0F5000FEDD2B0FAAB
:101BD00080FCACF1080CB2EB0C0200FA0CF0AABFCE
:101BE00000EBC25052421843BCBFD040184370476C
:101BF00092F0000F81F4000106BF80F40000013272
:101C0000013BB5E74FEA41037FEA226C18BF7FEA48
:101C1000236C21D092EA030F04D092F0000F08BF8A
:101C20000846704790EA010F1CBF0020704712F071
:101C30007F4F04D1400028BF40F00040704712F1B0
:101C400000723CBF00F50000704700F0004343F015
:101C5000FE4040F4000070477FEA226216BF08464B
:101C60007FEA23630146420206BF5FEA412390EA0E
:101C7000010F40F4800070474FF0000304E000BF04
:101C800010F0004348BF40425FEA000C08BF7047B5
:101C900043F0964301464FF000001CE050EA010279
:101CA00008BF70474FF000030AE000BF50EA01028E
:101CB00008BF704711F0004302D5404261EB41017B
:101CC0005FEA010C02BF84460146002043F0B643A0
:101CD00008BFA3F18053A3F50003BCFA8CF2083AC5
:101CE000A3EBC25310DB01FA02FC634400FA02FCCE
:101CF000C2F12002BCF1004F20FA02F243EB0200D5
:101D000008BF20F00100704702F1200201FA02FC36
:101D1000C2F1200250EA4C0021FA02F243EB020029
:101D200008BF20EADC7070477BB972B90029BEBFDA
:101D300000204FF0004106E008BF00281CBF6FF0F4
:101D400000414FF0FF3000F0C9B9ADF1080C6DE96A
:101D500004CE002909DB002B1ADB00F04DF8DDF87A
:101D600004E0DDE9022304B07047404261EB410129
:101D7000002B1BDB00F040F8DDF804E0DDE9022376
:101D800004B0404261EB4101524263EB43037047B0
:101D9000524263EB430300F02FF8DDF804E0DDE985
:101DA000022304B0404261EB41017047524263EBB1
:101DB000430300F021F8DDF804E0DDE9022304B07C
:101DC000524263EB4303704753B94AB9002908BF35
:101DD00000281CBF4FF0FF314FF0FF3000F07EB9FC
:101DE000ADF1080C6DE904CE00F006F8DDF804E072
:101DF000DDE9022304B070472DE9F04F099D0C4640
:101E0000002B4DD18A420F4684469646B2FA82F3A1
:101E100060D94BB102FA03FEC3F120029F4000FAE1
:101E200003FC20FA02F217434FEA1E461FFA8EF413
:101E30004FEA1C42B7FBF6F106FB117701FB04F0F9
:101E400042EA0742904208D91EEB020201F1FF3735
:101E500002D2904200F22D813946121A1FFA8CFCF0
:101E6000B2FBF6F006FB102200FB04F44CEA024C35
:101E7000644508D91EEB0C0C00F1FF3202D2644518
:101E800000F21A81104640EA0140ACEB040C00213C
:101E900025B12CFA03F30022C5E90032BDE8F08F2A
:101EA0008B4205D90DB1C5E9000100210846F5E7CF
:101EB000B3FA83F100294DD1A342C0F0F2809042E1
:101EC00080F0EF80064623460846002DE6D0C5E99F
:101ED0000063E3E7002B40F0A2808A1A4FEA1E4716
:101EE0001FFA8EF60121B2FBF7F407FB14204FEA2C
:101EF0001C4242EA004206FB04F090420FD91EEB5E
:101F0000020204F1FF382CBF4FF001094FF0000925
:101F1000904203D9B9F1000F00F0C8804446121A6C
:101F20001FFA8CFCB2FBF7F007FB102200FB06F651
:101F30004CEA024C664508D91EEB0C0C00F1FF324E
:101F400002D2664500F2BB801046ACEB060C40EABC
:101F500004409DE7C1F120068B4004FA01FE22FAFD
:101F600006F720FA06FCF4408A401F434EEA0C03B1
:101F700000FA01FE4FEA17484FEA13491FFA87FC9F
:101F8000B4FBF8F008FB104449EA044400FB0CF9E8
:101F9000A1450ED93C1900F1FF3A2CBF4FF0010BBF
:101FA0004FF0000BA14503D9BBF1000F00F0938067
:101FB0005046A4EB09041FFA83F9B4FBF8F308FBBD
:101FC000134403FB0CFC49EA0444A44506D93C191C
:101FD00003F1FF3801D2A4457AD8434643EA0040D2
:101FE000A4EB0C04A0FB02984445CC46434602D324
:101FF00006D1CE4504D20138B9EB020C68EB0703D9
:102000005DB1BEEB0C0264EB030404FA06F622FA9F
:1020100001F3CC401E43C5E9006400213EE702FA0B
:1020200003FEC3F1200104FA03F200FA03FCCC40E2
:102030004FEA1E4720FA01F11FFA8EF6B4FBF7F0C3
:102040000A4307FB1044110C41EA044100FB06F46B
:102050008C420ED91EEB010100F1FF382CBF4FF06E
:1020600001094FF000098C4202D9B9F1000F2CD0C0
:102070004046091B92B2B1FBF7F407FB141142EA88
:10208000014204FB06F1914207D91EEB020204F162
:10209000FF3801D2914215D84446521A44EA004111
:1020A00021E7861A64EB030301200EE7023C724429
:1020B00035E702397244D0E6F4440238E3E6F444EA
:1020C000023842E7023C7244E7E702387144D0E745
:1020D000023B3C4482E702383C446AE7704700BF59
:1020E000044B82B0C3F84C0AD3F84C320193019BE5
:1020F00002B0704700800256044B82B0C3F8600AF9
:10210000D3F860320193019B02B070470080025601
:1021100030B5ADF51B7D40220021684626F09AF9C6
:102120009822002110A826F095F94FF4C8720021DA
:1021300036A826F08FF901200FF0C2FA012001F035
:10214000C7FF00231922CDE91D3208220225CDE95F
:102150002323CDE92932E12201247D21CDE91A533F
:10216000CDE92153CDE92B321093032310A8CDE9FB
:102170001F44CDE92514CDE92745CDE92D451C9512
:102180002F9306F0AFFE00B1FEE74FF440337F22FD
:10219000CDE900234FF0407302934FF08053CDE917
:1021A0000C344FF00053CDE90E344FF48013CDE9D9
:1021B0000804CDE90A05CDE90330CDE90500079013
:1021C000684607F091FA00B1FEE7084B00226193E0
:1021D0004FF44003CDE93623054B36A8629307F050
:1021E0004BFE00B1FEE70DF51B7D30BD1400000372
:1021F000140400032DE9F04399B0FFF789FF102381
:10220000994C0226C4F86C3AD4F86C220127029249
:10221000029AC4F85C3AD4F85C3294480193019B6A
:1022200060231393072313A91793CDE91467169618
:1022300005F09AF94FF4E1338D488E494FF00C08C0
:10224000C0E900130023C0E90438C0E90233836108
:102250004FF40043C3610DF021FE054600B1FEE7D7
:102260004FF00040DFF84492FFF746FFC4F8200A21
:10227000C9F820023846FFF733FF3046FFF730FF3A
:102280000420FFF72DFF0820FFF72AFF4FF48053AB
:10229000C4F8543AD4F8543213A80393039B764BF2
:1022A000CDE91455139306F0BDFA744B13A813939C
:1022B00006F0B8FA724B13A8139306F0B3FA714BF9
:1022C00013A8139306F0AEFA01F0DAFB3046FFF7DD
:1022D00013FFC4F8206AC9F8206211F031FD11F033
:1022E00039FD28460FF04CFF284610F06DF840F2FB
:1022F000011369462846ADF800300FF0FDFD284671
:102300000FF068FD28460FF019FA30B140F2611164
:102310005D4B5E4A5E4824F087FF38460FF00EFAA8
:1023200020B14FF4B271584B584AF3E74FF40073A1
:102330000325C4F8583AD4F858323846129313A9F2
:10234000129B1396149506F095F913A9082006F030
:1023500091F913A9092006F08DF9404613A906F05A
:1023600089F913A9042006F085F92946494806F0A1
:10237000D5F92946484806F0D1F92946474806F0DC
:10238000CDF92946464806F0C9F92946454806F0E0
:10239000C5F92946444806F0C1F94FF48063C4F8F2
:1023A000583AD4F858221392139AC4F8183AC9F834
:1023B00018324FF0FF33C4F8843AD4F884221192D3
:1023C000119AC4F88C3AD4F88C221092109AC4F85E
:1023D000903AD4F890220F920F9AC4F8943AD4F815
:1023E00094220E920E9AC4F8983AD4F898220D923C
:1023F0000D9AC4F89C3AD4F89C220C920C9AC4F81A
:10240000A03AD4F8A0220B920B9AC4F8A43AD4F8BC
:10241000A4220A920A9AC4F8A83AD4F8A8220992E7
:10242000099AC4F8AC3AD4F8AC220892089AC4F8D5
:10243000B43AD4F8B4220792079AC4F8B83AD4F858
:10244000B8220692069AC4F8BC3AD4F8BC22059287
:10245000059AC4F8883AD4F888320493049B00F0B3
:10246000EDFD19B0BDE8F083008002560010025661
:1024700030C0073400100052003102528031025245
:102480000032025280320252DEC902343BCA0234A8
:10249000F4C902340A000030050000301C0000209E
:1024A0001D000020010000301800001000900256AE
:1024B0003F4A70B5136886B043F4005313603D4B38
:1024C0001A6A22F440321A621A6A22F040721A62C0
:1024D00001F0C1FF4FF4806301A8ADF8043002F0B1
:1024E00015F90123ADF80830334B02A80393334BA1
:1024F00004934FF48073059302F002F9042002F074
:10250000EDF82F4B5A6912F4003211D1BFF34F8FFF
:10251000BFF36F8FC3F85022BFF34F8FBFF36F8F9E
:102520005A6942F400325A61BFF34F8FBFF36F8F85
:102530001F4A136843F480531360A2F57342536932
:1025400013F4803328D1C2F88430BFF34F8F43F6A1
:10255000E074D2F88030C3F3C900C3F34E335B019B
:1025600000F1010E01464EF001E003EA040646EADE
:102570008175C2F8605201390FF007C8203B13F192
:10258000200FEDD1BFF34F8F536943F48033536174
:10259000BFF34F8FBFF36F8F16F058FD18F0A0FDFB
:1025A0004FF4A171074B084A084824F03DFE00BFD4
:1025B00000E001E00080025600001B34E3801F347D
:1025C00000ED00E0352A063461CA0234F4C9023451
:1025D0000123C02200B589B00A21CDE905323F238D
:1025E000CDE9033102934FF480530193084B094A1C
:1025F000009309490023094818F00CFF28B15A211B
:10260000074B084A084824F00FFE09B05DF804FBA8
:1026100070AF0734F5210034FFC9023470BF0734AE
:1026200004CA02344BCA0234F4C90234FEE700B5CE
:10263000E5B04FF4C8720021684625F00BFF002377
:102640001022CDE900234FF400134FF08051329354
:1026500003236846CDE9221307F00EFC48B9002396
:102660000822CDE90023282324906846259307F00B
:1026700003FC65B05DF804FB07B51C4B02689A4289
:1026800006D040F299111A4B1A4A1B4824F0CCFD8F
:102690004FF48022194BC3F85C2AD3F85C320193C3
:1026A000019B06F02DFA164AD36B5B03FCD506F0AE
:1026B00007FA4FF08060FFF71FFD124B4FF00060EC
:1026C0001A68062122F070021A601A6842F020028D
:1026D0001A60FFF711FD0022B12001F073FFB12055
:1026E00003B05DF804EB01F0CBBF00BF000004585D
:1026F0000DCA02342BCA0234F4C9023400800256D7
:102700000048025600FC035808B54FF48060FFF7FC
:10271000E7FC4FF08040FFF7EFFC044BC3F8200AC2
:1027200003F58053C3F8200208BD00BF00800256A5
:1027300000BEFEE70120024B18600EF0DFBF00BFB5
:1027400038F3073410B5084C4FF0FF31204618F02D
:1027500021FC30B140F2AB21044B054A054824F07E
:1027600063FD01F0E3FAEFE7D0C0073404CA023496
:10277000EECC02346ECA023470B504460D46114EDA
:102780004FF0FF31304617F039FBD4E90201281829
:10279000256041EBE5716568C4E9020101356560BA
:1027A000FFF77CFA07EE905A06EE900AF8EEE77A09
:1027B00086EEA77A304684ED047ABDE8704018F0C2
:1027C0004FB900BFE01F0C342DE9F0478AB00E4628
:1027D00004469246994601F0BBFA6FF02802134D69
:1027E0002B8802FB030801F0B3FA074601F0C4FA94
:1027F00094ED047AB7EEC77A8DED087B2268034624
:10280000CDE905A20A4A31460492129A28460132BD
:102810000392084A02926A8809FB02F2CDE900821B
:102820003A4600F0B1FF0AB0BDE8F0871C200C3436
:102830001928063478CA02340022024B01201A609B
:102840000EF06CBF38F3073408B5064B1A6832B97E
:1028500040F2BF21044B054A054824F0E5FC002264
:102860001A6008BD34F3073493CA02347ACC0234B8
:102870006ECA023410B54FF0FF310446203018F014
:1028800089FB30B14FF49371084B094A094824F091
:10289000CBFC236D04EB8302506C226C013393FB61
:1028A000F2F102FB1133236510BD00BF04CA0234EC
:1028B000CFCC02346ECA023410B54942044618F037
:1028C00069FB0D2813D030B14FF48871094B0A4AC7
:1028D0000A4824F0A9FCE36C04EB8302506C226CE0
:1028E000013393FBF2F102FB1133E36410BD0020CE
:1028F000FCE700BF04CA0234A1CC02346ECA023421
:1029000008B516F097FC30B140F21D11024B034A96
:10291000034824F089FC08BD04CA0234BFCC023449
:102920006ECA023408B5203016F084FC30B140F293
:102930003311034B034A044824F076FC08BD00BF62
:1029400004CA023490CC02346ECA02342DE9F84F26
:1029500001F0BCF9044601F0B5F9D4E90223A3F56E
:10296000B753183B9342D0E9025606D040F26D119E
:102970003B4B3C4A3C4824F057FC01F0A7FB0021AC
:102980003A48FFF799FF20B940F27311384B354AA6
:10299000F0E7002101F0B6F9DFF8D080354FDFF81D
:1029A000F090761B01F092FB4046FFF763FF8346F1
:1029B00020B940F27F11304B2A4ADBE7012138462B
:1029C000FFF77AFF824620B940F281112B4B254A4E
:1029D000D0E701F07BFB044601F078FB3246054668
:1029E0005946002001F0EAF80AF01F0E0EF5B75E16
:1029F00053460EF1180EBFF34F8F0EF1FF3E4FEA14
:102A00005E1E0EF1010E4EF001E0C9F85C3220337B
:102A10000FF005C8BFF34F8FBFF36F8F41F2F8621D
:102A20005146002001F0E4F820B140F28B11144B24
:102A30000C4A9FE7134810F0E7FB01F047FB411BEE
:102A40001148FFF799FE4046FFF75AFF3846FFF757
:102A500069FF01F03BFB011B0C48FFF78DFEA1E76E
:102A6000A1CA0234B1CC02346ECA0234C01D0C3487
:102A7000C2CA023460EF0B34CECA0234DDCA02345B
:102A8000EBCA0234C4A60734681F0C34501F0C3440
:102A900000ED00E038B502220D4620230021044657
:102AA00018F06AF8024640B920230146E01818F0F1
:102AB00063F828B1204617F083F84FF0FF3009E0A3
:102AC000022323642B6833B163646B681BB1C4E9D0
:102AD0001230206538BDFA21024B034A034824F026
:102AE000A3FB00BF0ACB02346ECC02346ECA0234A0
:102AF000036870B5002BBCBF002303600B6805465C
:102B0000002BBCBF00230B6006680C4601F020F9C7
:102B1000864203DB01F01CF901382860256801F0CA
:102B20002BF9854203DB01F027F90138206070BDE5
:102B30002DE9F04F2DED088BCFB016A800F06CFFFB
:102B40009FED39AA9FED369B3848FFF793FE044668
:102B500030B940F28F21364B364A374824F064FBB7
:102B600001F0B4FA079001F0B1FA0023054614937E
:102B7000012116AB14AA0EA80E9400F067FF0646BA
:102B800020B140F297212D4B2A4AE6E701F09EFA48
:102B90002B4C411B04F120072A4804F13805FFF7AC
:102BA000EBFD0FCF0FC597E8030085E8030012A8DF
:102BB00018F00AFE20A818F011FE2AA818F018FE36
:102BC000DDE91210209B2A9D219ACB1840EB0202CE
:102BD0005B192B9DC4E90A1042EB0502C4E90832D7
:102BE00001F074FAA36C226E20639B1AB3F57A7F0E
:102BF0000CD2154BD3F80080144BB8F1000F27D13D
:102C0000C3F800800948FFF77BFE9DE7902204F19E
:102C1000380104F1500025F003FCEAE7AFF300802F
:102C200000000000000059400000C84260EF0B3473
:102C3000DDCA0234E0CC02346ECA023415CB023451
:102C4000701E0C34981F0C3438F30734CCC0073492
:102C50001B68002B00F01B818E4B1D68003D18BFC8
:102C600001254FF461128C4B8C4C1B6820AF02FB8A
:102C7000034401F02BFADFF878C20890BCE80F009B
:102C80000FC7BCE80F000FC79CE8030087E80300EC
:102C900001F072F8DFF814924FF0FF31B9F802300A
:102CA00090FBF3FA7E48AAF10403099317F0A6F803
:102CB00090227C492AA818F045FE794817F0D0FEEA
:102CC000159B9E42C0F21881309E01F041F881466A
:102CD00001F052F807EE906AB8EE677B8DED047B49
:102CE0001026714A714F02927A88099903464A4325
:102CF00001924A46DFF8FC9138462146009600F0E2
:102D000043FDD9E91C32D9E91601C01A61EB020171
:102D1000FEF7C6FED9E91A3241EC180BD9E91401C5
:102D2000C01A61EB0201FEF7BBFE28EE098B41ECF5
:102D3000160B88EE067BB7EEC78B01F009F88146CB
:102D400001F01AF8B7EEC88A8DED048B584AAAF143
:102D5000030A02927A8821460AFB02F20346CDE971
:102D6000006238464A4600F00FFD159B092B28BF2C
:102D700009231F4600F0ECFF814600F0FDFF4021D3
:102D8000CDE90266CDE900114EAB03EB87030246A5
:102D90004946204653F8B83C00F0EAFC00200EF00B
:102DA00057FD01284349444A06D10B6823B91368EB
:102DB000B3FA83F35B091360136808605BB3002701
:102DC0000426012321463D4A2AA80097FFF7FCFC70
:102DD000022321463A4A30A80096FFF7F5FC032368
:102DE0002146384A36A80097FFF7EEFC33462146C5
:102DF000354A3CA80096FFF7E7FC05232146334AF5
:102E000042A80096FFF7E0FC06232146304A0096D0
:102E100048A8FFF7D9FC01F059F9089BC11A2D48C1
:102E2000FFF7AAFC01F052F92B4606464FF47F3219
:102E30002046294900F056FD041E164D08DD274B9B
:102E40001B68002B00F0EE8001234FF0FF342B6055
:102E500001F03CF9811B2248FFF78EFC002C09DDB4
:102E600001231E4E21461F48336023F007FA08B1A4
:102E70000023336000232B601B4BC3F8008001F05C
:102E800025F9079BC11A1948FFF776FCBAE6012518
:102E9000E7E600BF30F30734F4A607340098049146
:102EA000E01F0C34501F0C3440CB023414200C347F
:102EB00057CB0234C8C00734C4C007346FCB0234C8
:102EC00081CB02348FCB0234A1CB0234AFCB02349E
:102ED000BDCB0234B01F0C3400001B3434F3073474
:102EE000C81F0C3460F30734CCC00734801F0C3487
:102EF000A0C10234701E0C341823149F03FB067704
:102F0000D7ED00AA97ED018A00F022FF08EE900AA3
:102F100000F032FF07EE900AF8EEE77A67EE887A63
:102F2000F8EEE88AFDEEE77A97ED02BA17EE90BA6E
:102F300068EEAA8AD7ED03AA00F00AFF08EE100A8D
:102F400000F01AFFB8EEC88A07EE900A28EE0B8A46
:102F5000F8EEE77ABDEEC87AFDEEE88A67EEAA7A67
:102F600017EE103A18EE902AFDEEE77A013303EBE4
:102F7000D3735B105B429A180F9217EE902A0132BE
:102F800002EBD2725210524202EB0B01109118EE7A
:102F9000901AABEB0202CB1A0FA810A91193129250
:102FA000FFF7A6FD12A911A8FFF7A2FDDDE90F2B7F
:102FB000119B97ED048A9B1A1BB20A93129B0D92E8
:102FC000A3EB0B031BB20C9300F0C2FE0B9000F0BE
:102FD000D3FE0D9A0C9B17B24FF0FF3202930A9B5F
:102FE0000FFA8BFB0B99CDE900B303923B460246E7
:102FF000204600F00FFB00F0ABFE0A9000F0BCFE94
:1030000028EE0A7AB7EEC77A094A0346CDE901B23B
:103010008DED047B214648460A9A009700F0B4FBE8
:1030200001364DE622460349034818F08BFC0FE7B2
:1030300037CB023400001B3460F30734F0B50024B2
:1030400097B01822002110A825F004FA7E48CDE997
:103050000D440F9425F0CCF87C4A2146D2F8FC3080
:10306000204643F08073C2F8FC300EF093FB01461B
:1030700030B140F2D321764B764A774824F0D4F829
:10308000E0227648764C25F0E5F994E8030009AB98
:1030900083E8030019467348FFF7FCFC20B140F2B7
:1030A000D921714B6B4AE8E70BABD4E9020183E805
:1030B000030019466D48FFF7EDFC20B140F2DB211B
:1030C000694B644AD9E76A496A4800F0D3F920B1EC
:1030D00040F2DF21644B5F4ACFE76749674800F061
:1030E000C9F9044620B140F2E1215F4B594AC4E7D7
:1030F0000125634B1E26C3F8785AD3F8783208931B
:10310000089B0CF0BBFF00F0C1FE00F021FE0D900B
:1031100000F032FE0E900DA80F9600F065FB00F057
:1031200017FE109000F028FE0523564ACDE913350E
:10313000554BCDE911061360544B10A95360544B05
:103140005448936022F0FEFF224620232146524835
:1031500017F012FD024620B140F2FD21424B3D4ADC
:103160008BE7014620234D4817F006FD014620B1AC
:1031700040F2FF213C4B374A7FE734232A46484838
:1031800015F07AFF014620B140F20131454B314A3A
:1031900073E734232A46444815F06EFF044620B1F5
:1031A00040F203313F4B2B4A67E701463F4800F0AE
:1031B00095FD1F230A220293CDE903324FF4805379
:1031C000C02601933A4BCDE905560093394A234670
:1031D00039493A4818F01EF920B140F20B31314B11
:1031E0001C4A4AE722230A2501274FF48054CDE9DF
:1031F0000233334BCDE904570093324A002332495E
:1032000032480696019418F005F9034620B140F2C1
:103210000E31244B0F4A30E71E22CDE902222C4A00
:10322000CDE9057600922B492B4A2C480495019450
:1032300018F0F0F820B140F211311A4B054A1CE7A2
:103240000EF05CFA17B0F0BDCBCB023400ED00E01D
:10325000DEC90234FDCC02346ECA0234701E0C3456
:10326000C8C10234C01D0C3404CA023460EF0B34F0
:103270001C200C3400A7073414200C3408A7073492
:10328000008002563CF307343527003439280034D7
:103290004928003400000458D0C007341C1E0C34E8
:1032A0003C1E0C34DCCB0234E01F0C34009804913B
:1032B00070E207344D290034EECB023470F207344B
:1032C000B0D10734312B0034F1CB0234B0E10734F4
:1032D000F0C00734F4CB023445270034F0D0073473
:1032E00001282DE9F04105462BD10323DFF8A48006
:1032F000214FD8F800603C680136013496FBF3F2A8
:1033000094FBF3F302EB420203EB4303E41AB61A15
:1033100011F028FA4FF46112184B294602FB0433CE
:10332000002203F0E1FB30B14FF49F71144B154ABA
:10333000154823F079FFC8F800603C600020BDE824
:10334000F0810228FAD100211048FFF7B5FA0446AF
:103350000028F3D011F006FA23460022294603F094
:10336000C3FB20B140F24D11054B094AE0E7074885
:10337000FFF7D8FAE2E700BF141E0C34009804915E
:10338000F8CB023454CC02346ECA0234C01D0C3463
:1033900035CC0234F4A60734012808B50AD1064812
:1033A00015F048FF30B140F25711044B044A05486C
:1033B00023F03AFF002008BDD0C0073404CA02340D
:1033C0001BCC02346ECA023410B504464FF0FF31F4
:1033D000024816F013FD024B1C6010BD3C1E0C345D
:1033E000181E0C34014817F03BBB00BF3C1E0C34C8
:1033F00008B54FF0FF31064817F0CCFD30B14FF45F
:103400004E71044B044A054823F00EFF08BD00BF6F
:103410001C1E0C3404CA023412CC02346ECA0234AC
:1034200008B5064815F006FF30B14FF45071044B53
:10343000044A054823F0F8FE08BD00BF1C1E0C34EA
:1034400004CA023406CC02346ECA0234014B186836
:1034500003F050BF181E0C3408B52521024B034A57
:10346000034823F0E1FE00BF352A06345D4D0534E4
:10347000404D05342DE9F04F8588C78804464FF448
:10348000BE7007FB05F887B000FB08F00E4623F07E
:1034900005FF0346706000285AD04FF0000C5F20F3
:1034A0004FF0010B2268358077800192E288073562
:1034B0000292ED104FEA8802049207FB05F2A688FB
:1034C0000592F41D24F0070EB200E40803920EF1F9
:1034D000FF3E99464FF00008019A02EB0C05029A54
:1034E000904508D3049A01381344059A9444F0D1C6
:1034F00007B0BDE8F08F2978012C0A4604D0022CD1
:1035000010D12A8852BA92B20027BE4206F10101B8
:1035100008BF012101390CD1039A08F10108914437
:103520002544DCE76A78090441EA0221AA780A43C3
:10353000EAE7AEEB070A0BFA0AFA1AEA020F14BF1F
:103540004FF0FF3A4FF0804A49F827A00137E1E7F2
:103550004FF0FF30CCE70000F0B59DB00D461446AB
:1035600000216022064604A81F4624F073FF4FF492
:103570004033224A02A8CDE902232B1B0593FFF713
:1035800023FF02A803F014FD28B16E211C4B1D4A35
:103590001D4823F049FE012102A803F035FF18B1B0
:1035A0007121174B174AF3E73C2001F069F8174BDC
:1035B00024990A93164B00970B93DDE9222303FB12
:1035C000052202A8234606EB820203F07BFD18B118
:1035D00078210B4B0B4ADBE7FFF70AFF3C2001F099
:1035E00063F802A803F04EFE18B17F21044B054A90
:1035F000CEE7FFF7F7FE1DB0F0BD00BF0010025888
:10360000F8CB0234714D0534404D0534E1370034B8
:10361000593400342DE9FF470546DDE90C7ADDE930
:103620000E980E461C4652460093CDE901780123C0
:10363000FFF792FF07EB0903013BCDE90043524638
:10364000314628460123CDF80880FFF785FF4B4619
:103650003146284600940122CDE90178FFF77CFF2E
:103660004B460122314628465444013CCDE90D78B1
:103670000C9404B0BDE8F047FFF76EBF2DE9F041B0
:103680009CB01D460F4604460021164604A8602241
:1036900024F0E0FE4FF400332F4A02A8A7EB050800
:1036A000CDE90223CDF81480FFF78EFE02A803F0C7
:1036B0007FFC28B13A21294B294A2A4823F0B4FD3E
:1036C000FF230121CDE90C80CDE91000CDE91503E0
:1036D000CDE91300CDE917000E9002A80F9303F077
:1036E00093FE014618B14B211C4B1D4AE5E702A889
:1036F00003F08AFE18B14D21184B194ADDE71A4B29
:103700003C200A93194B0B93DDE9233202FB07336C
:1037100004EB830400F0B4FF229B2246CDE9005362
:103720003146234602A803F007FD18B154210B4B84
:103730000B4AC2E7FFF75CFE3C2000F0B5FF02A891
:1037400003F0A0FD18B15B21044B054AB5E7FFF774
:1037500049FE1CB0BDE8F08100100258F8CB0234DD
:103760004B4D0534404D0534E137003459340034B5
:1037700070B41A46DDE90556DDE90334CDE9045697
:10378000039470BCFFF77ABF00232DE9F04397B094
:103790008DF85430044621AB884691464021209A4A
:1037A00005A81E9F049324F099FD05AD15F8016B43
:1037B00016B917B0BDE8F08360882388203E03FB6C
:1037C00000F2724361681F9E0090CDE9017601EB23
:1037D000820240464946FFF751FF23881F44E5E730
:1037E00008B5FFF71DFE08BDF0B5074601253326D5
:1037F000DDB0342200210BA824F02CFEBB68354C30
:103800005A1E22613A6821460C927A680BA8CDE9CB
:103810000D238DF82D508DF82E600F95129518F010
:1038200097FA28B1D2212C4B2C4A2D4823F0FCFCCE
:103830006946206818F0CFFF18B1D621264B274AD9
:10384000F3E70B23694620688DF8103018F0E2FE8C
:1038500018B1D921204B214AE7E7206827A918F0A1
:10386000AEFC18B1DD211C4B1C4ADEE7206827A9FD
:10387000299518F0A5FA18B1E021174B174AD4E79B
:10388000206818A918F076FE18B1E421124B134AEB
:10389000CBE7D7E900314B430C21BA68CDE9185585
:1038A00053434B431E21192593FBF1F30A211A9030
:1038B000CDE91B511F90229018A920681D962192D6
:1038C0001E9318F051FD18B1F121034B034AACE7E8
:1038D0005DB0F0BD28200C34834D0534B14D053466
:1038E000954D05342DE9F04F3B4C81469846D4E97F
:1038F00000030D46174699B0002B6BD1CDE910118E
:1039000012920CA903AA18F0B5FF00285DD1049EFD
:1039100005EB060C1CF007031DD0C3F1080ABAF131
:10392000060FC3F1100338BF9A46BB1B53454CD357
:103930000123A8558CF803302C238CF801008CF857
:1039400002008CF80430FF21AAF105020CF10500F9
:1039500024F080FD53461E44012363600021D4E916
:1039600002AB3544BF1BCDE90D11CDE910552269DD
:10397000CDF830901297B8F1000F09D101325046BE
:103980005946D317FEF720FA1A4314BF012100212C
:1039900001230F930323ADF854300023CDE9003306
:1039A0008DF84C10206803AA0CA9CDE9163319F044
:1039B0009BF8012809D1D4E902320498013342F17D
:1039C0000002C4E90232304401E04FF0FF3019B088
:1039D000BDE8F08F0026C1E728200C3423F066BC38
:1039E00008B523F03FFC30B940F21911024B034AED
:1039F000034823F019FC08BDA34D0534A74D053439
:103A0000954D0534024B03604FF480030B60704703
:103A10000058AD9170470000094A05218261094AAA
:103A2000C2610122C0E900210722C0E9022231223D
:103A30000261054A02620A22426110F0A7BC00BF7F
:103A40009A99193F9A99993EF44D053413B50C464D
:103A5000012C11461A4605D0C421064B064A0748D8
:103A600023F0E2FB036801A8019310F093FC02B07D
:103A700010BD00BFBA4D0534DE4D0534C84D0534C8
:103A80001FB5154B7C2101AA02A802930BF0D0FDB3
:103A90000346E0B9019A02F4C031B1F5C03F17D036
:103AA00042F4C0327C2102A801920BF0DDFD68B91E
:103AB0007C2101AA02A80BF0BBFD30B9019B03F4E5
:103AC000C033B3F5C03F03D0FEE7FEE7FEE7FEE7F5
:103AD00005B05DF804FB00BF009000567047FEE79C
:103AE000FEE7FEE77047FEE708B510F03BFEBDE8D5
:103AF000084001F0B3BB08B510F034FEBDE8084043
:103B000001F076BA22F0B4BB0149024810F034B992
:103B1000806D2034C067203430B5254CAFB02068AC
:103B2000D22500F5B85100F5B75010F025F9B422B0
:103B3000002101A824F08EFC40F2BE5107222A2366
:103B40001E20CDE90615CDE90222CDE90D228DF822
:103B500004300A910123119178224FF45271CDE97A
:103B60000403CDE90803CDE90F03CDE912120420C7
:103B700041F2F862CDE9140222680E4D16920E4A07
:103B800001A8219230328DF830308DF85C301C93D2
:103B90008DF8883027932C928DF8B4300B950FF068
:103BA000A1FF206800F5B85110F010F92FB030BD1A
:103BB00040D50C34C0672034E0D3E07040B911F038
:103BC0001F0007D1B2F5133F06D3044B19607047AD
:103BD00003207047012070470220704744D50C3401
:103BE00010B9024B186870470020704744D50C3458
:103BF00048B911F01F0008D141F2F7639A4206D983
:103C0000044B196070470320704701207047022061
:103C1000704700BF40D50C3410B9024B186870478C
:103C20000020704740D50C3400220E4B13B50E49CE
:103C30000E481A6010F098F842F63E530B490C48B3
:103C400001AA01930FF0EAFF044640B1084810F0C2
:103C50002FF8084B04491860044810F0B7F82046C4
:103C600002B010BD40200C3440D50C3448200C3438
:103C7000D05A053444200C3413B50B490B4810F0CE
:103C800073F80B4B0B4800930B4B00221B68074942
:103C9000006810F021F8044618B10349034810F0F9
:103CA00095F8204602B010BD40D50C3448200C34A5
:103CB00040200C3444200C3444D50C340048704768
:103CC000645A053400487047F45905340048704779
:103CD0005C59053400487047545305340A4608B50A
:103CE0000146012010F004FE28B1C621024B034A10
:103CF000034823F099FA08BD081006340011063471
:103D00001E1006340A4608B50146022010F0F0FDE8
:103D100028B1CE21024B034A034823F085FA08BD9F
:103D200008100634EF1006341E10063408B510F0E3
:103D3000EDFE28B1D621034B034A044823F074FA60
:103D400008BD00BF08100634E11006341E1006340A
:103D500008B5054B186828B9DB21044B044A05480F
:103D600023F062FA08BD00BF50D50C342C10063485
:103D7000D01006341E10063408B5054B186828B953
:103D8000E221044B044A054823F04EFA08BD00BF67
:103D90004CD50C3437100634BE1006341E100634D1
:103DA00007EE901A70B52DED068B1446F8EEE78AF3
:103DB0000D460646FFF7CCFF07EE900AF8EEE79AAD
:103DC00007EE904AB8EEE78AFFF7D6FF07EE900AB3
:103DD000F8EEE77A88EEA9AA88EE279AB4EE49AA07
:103DE000F1EE10FAF7EE007A48BFB0EE4A9AB4EE60
:103DF000E79AF1EE10FA05DA50211F4B1F4A2048CE
:103E000023F012FADFED1F7AB4EEE79AF1EE10FA22
:103E100003D451211C4B194AF1E769EE897AF4EE7B
:103E2000E78AF1EE10FACCBFFCEEE78AFCEEE88AF6
:103E3000C6ED008AFFF7A0FF07EE900AF8EEE77ADA
:103E400067EE897AB4EEE78AF1EE10FA18EE903A4E
:103E5000CCBFBCEEE78ABCEEC88A0135ED1A18EE7D
:103E6000103A0134E41A6D08640886ED018ABDEC4D
:103E7000068BB560F46070BD431006343E11063405
:103E80001E100634000080424E1006342DE9F04327
:103E900095B00DF1070010F057FD28B1AC21784B1B
:103EA000784A794823F0C0F99DF80730012B07D0F4
:103EB000022B10D0002B3FD04421744B744AF0E702
:103EC0004FF422614FF4F36202234FF4A0674FF4E2
:103ED0003474184609E04FF448714FF41672012308
:103EE0004FF420774FF4F0740320DFF8DC81694E43
:103EF000C8F80030684B694D1F60694B31601C6029
:103F0000684B2A6053F82010674824F009F9336899
:103F10001E2003932B6804930023CDE90503079328
:103F2000D8F8003003A8089310F09AFD044658B161
:103F3000B721534B534AB4E74FF48C614FF43472BA
:103F400001230F461446C4E7039B04273360049BF8
:103F50002B6010F007FC40F22F210F23CDE90C4419
:103F60000224CDE90E1309A90546CDE909440B97B2
:103F700000F040FF18B18F214C4B4D4A91E70523CB
:103F80004FF40C72099340F27F230F9009A9284641
:103F9000CDE90B74CDE90D2300F02CFF054618B1D7
:103FA0009821424B424A7CE7FFF7D2FEDDE90389C4
:103FB0000646FFF7E1FE864203DA5F213D4B3E4AAB
:103FC0006FE70996FFF7D8FE03264A464146CDE93A
:103FD0000A0410A8CDE90D550C970F96FFF7E0FEE7
:103FE000012002AA09A910F0C1FB18B16A212F4BC8
:103FF000314A56E70C9A099B5343029A934203D0E5
:104000006B212E4B2C4A4CE70125DDE90312E023FE
:10401000CDE90B06CDE90D5010A8CDE909330F9677
:10402000FFF7BEFE204602AA09A910F09FFB18B1B7
:104030007D211E4B224A34E70C9A099B5343029A76
:10404000934203D07E211D4B1D4A2AE710F08AFBC4
:104050004FF460422946044602F0D6FD18B1A02173
:10406000124B184A1DE72946204602F025FE18B1DA
:10407000A2210E4B134A14E715B0BDE8F08300BF30
:10408000081006348C1106341E100634352A063406
:104090007A11063458D50C3450D50C3454D50C3420
:1040A0004CD50C34C411063459100634F8CB023404
:1040B0006811063466100634511106348010063437
:1040C0002C1106341611063448D50C3415F096BD63
:1040D00008B5EFF305832BB12521044B044A0548AD
:1040E00023F0A2F8BDE8084015F0E4BD352A0634F7
:1040F000E6110634D411063400207047444B454A7B
:1041000070B501209A60022500224349434E01F513
:104110008054C1F8180AC4F81802C4F85802C3F849
:10412000D820C3F8DC20C3F8E020C3F8D800C3F8D7
:10413000DC20C3F8E020C3F8D8500325C3F8DC2006
:10414000C3F8E020C3F8D8500425C3F8DC20C3F836
:10415000E020C3F8D8500525C3F8DC20C3F8E020E0
:10416000C3F8D8500625C3F8DC20C3F8E020C3F814
:10417000D8500725C3F8DC20C3F8E020C3F8D85096
:10418000C3F8DC20C3F8E020C1F8780AD1F878221F
:104190009A683261224AD56B45F48055D563D56B58
:1041A00045F01005D563D26BD1F8742242F4004279
:1041B000C1F87422D1F8782242F01002C1F87822B6
:1041C000D1F87822D1F8782222F01002C1F87822B2
:1041D0004FF44052C1F8202AC4F820224022C1F8EE
:1041E000240AC4F82402C4F86402C4F85C223269C8
:1041F000C4F87802D3F8882042F47002C3F888200B
:10420000084AD2F8883043F47003C2F8883070BD91
:1042100000ED00E0000400340080025600800056EB
:104220000048025600ED02E07A4BF0B51A6A02F43B
:104230004012B2F5001F00F0CF8008D8002A39D014
:10424000B2F5801F3CD00022734B1A60F0BDB2F56E
:10425000401FF8D1D3F8C42002F04052B2F1805F81
:1042600036D0B2F1005F44D0002A52D1D3F880207A
:1042700012F0006502F0E04140F0B780D3F884000E
:10428000D3F88830C2F30B2620F07F400D46B5F1FD
:10429000005FC3F3C264C2F30551C3F3026300F0CD
:1042A000928000F29B80002D47D0B5F1805F7AD0DC
:1042B000002249E09B6C594AC3F3C113DA40C3E7BB
:1042C0005B6C574A13F4007F564B08BF1A46BBE796
:1042D000D3F8902012F0006502F0E04140F08580B4
:1042E000D3F89400C2F30B26D3F8983020F07F4027
:1042F000CCE7D3F8A02012F0006502F0E04174D1C1
:10430000D3F8A400C2F30B26D3F8A83020F07F40E6
:10431000BCE7D3F8B02012F0006502F0E04164D1B0
:10432000D3F8B400C2F30B26D3F8B83020F07F40A6
:10433000ACE70B460C4608460E46364A976C374AA1
:10434000C7F3C117FA402DBB07EE900A07EE106ABB
:10435000FAEEC47AB8EEC77A37EE877A07EE902A7B
:10436000F8EEE77A67EE277A07EE101AB8EEC77A0A
:10437000C7EE876A07EE904AB8EEE77A07EE903A02
:10438000F8EEE77A27EE277AC6EE877AFCEEE77A30
:1043900017EE902A1F4BD3F8C430C3F30743013301
:1043A000B2FBF3F250E700251A4A1E4F526C12F48A
:1043B000007F1B4A08BF3A46C5E700231C46184643
:1043C0001E461946F0E70025174ABCE700231C46A5
:1043D00018461E461946F7E7134A35E7B5F1405F20
:1043E0007FF466AF0025114AADE7B1F1005FEDD073
:1043F00006D800299DD0B1F1805FDED00022C9E748
:10440000B1F1405FFAD100231C4618461E461946FA
:10441000E9E700BF00800256F8A607340090D003F9
:104420000024F40000093D00006CDC020080BB00A9
:104430006DED81CF00B5FFF7F7FE054B5DF804EB9E
:1044400018689FEC100A9FE80E90FDEC81CF74472E
:10445000F8A60734704710B5032000F095F8FFF771
:10446000E3FE0F20FFF748FE044618B9FFF7F2FFFE
:10447000204610BD0124FBE7014B5869704700BF7F
:1044800000900056014B9869704700BF009000569D
:10449000014BD869704700BF0090005638B54B7883
:1044A00005460F2B0C4604D940F2D1212448FEF7D3
:1044B0003FF92378012B04D940F2D2212048FEF79E
:1044C00037F96378AB602B6923F001032B61A37B81
:1044D000012B04D940F2DB211948FEF729F9637B4F
:1044E000032B04D94FF437711548FEF721F9E37B0C
:1044F0009A1E012A05D923B140F2DD211048FEF7AA
:1045000017F9237B072B04D940F2DE210C48FEF774
:104510000FF96368A27B23F01F031343E27B43EA96
:10452000C203627B43EA4203EB60A368227823F074
:104530001F031343227B43EA42032B6138BD00BFB4
:10454000F011063438B50B780446072B0D4604D914
:1045500040F2F1210B48FEF7EBF8FF212B78032BFB
:1045600092BF04F1300004F13400043B0268DB0028
:10457000994022EA0102697801FA03F313430360C8
:1045800038BD00BFF0110634C31E042B10B504461D
:1045900003D9E6210948FEF7CBF809492302CA6886
:1045A00003F4E06322F4E0621204120C134343F0BC
:1045B000BF6343F40033CB6010BD00BFF01106347D
:1045C00000ED00E010F10C0F2DE9F04105460C461E
:1045D000174601DB031D03D1FF212648FEF7A8F88B
:1045E000254BDE68C6F30226022E06D857B14FF4DB
:1045F00081712048FEF79CF804E00123F21E9340ED
:10460000BB42F4D90F2CC6F1070804D8012303FAE2
:1046100008F3A34204D840F203111648FEF788F8C5
:10462000B8F1040F06F1040328BF4FF004084FF05F
:10463000FF32062BA6F1030698BF002602FA08F8FF
:1046400024EA0803B24027EA0207B340002D43EAF8
:104650000703ACBF05F16045084A4FEA0313DBB21C
:10466000ABBF05F5614505F00F0585F800335355DF
:10467000BDE8F081F011063400ED00E014ED00E03B
:10468000002808DB01234109054A00F01F00834090
:1046900042F82130704740F215110248FEF748B841
:1046A00000E100E0F011063400280DDB0122094989
:1046B000430900F01F008240203341F82320BFF35C
:1046C0004F8FBFF36F8F70474FF493710248FEF71F
:1046D0002FB800BF00E100E0F0110634BFF35F8F98
:1046E000064B40F00100C3F894005A6A42F480324D
:1046F0005A62BFF34F8FBFF36F8F704700ED00E03A
:1047000001460148FFF7CABE90ED00E001460148AE
:10471000FFF718BF90ED00E0F8B51446036871BBD1
:10472000D3F8042422F4C01242EAC442C3F8042499
:10473000234B022C1A6838D0032C39D0012C3AD1E3
:1047400042F040021A60FFF7C1FC4FF40036074602
:104750001B4DA640FFF7BAFCC01BB0F57A7F2DD8E1
:10476000D5F8903036EA0303F4D14FF48853002093
:10477000D5F88020A3401343C5F88030F8BD012947
:10478000D3F8042806D122F4C01242EAC442C3F886
:104790000428CDE7520341BFD3F8042C22F4C01201
:1047A00042EAC442C3F8042CC2E742F48062C9E77B
:1047B00042F48042C6E742F00402C3E70120DDE78D
:1047C00000600058012930B54FF00205046810D18F
:1047D0008571D4F800190B43C4F80039C4F8C42912
:1047E000D4F8F03343F4060343F02003C4F8F03365
:1047F00030BD08444571D4F8001D0B43C4F8003D9A
:10480000C4F8C42DD4F8F03343F00643ECE770B499
:1048100015461E4699B9022301684371D1F8002557
:104820003243C1F80025C1F8C455D1F8F03370BC4B
:1048300043F4064343F02003C1F8F033704770BCE3
:10484000FFF7C0BF022383710368D3F8042842F046
:104850000042C3F80428D3F8002942F00802C3F844
:104860000029704769B90368D3F8042442F0004274
:10487000C3F80424D3F8002542F00802C3F8002549
:104880007047012901D1FFF7DDBF0368D3F8042C7D
:1048900042F00042C3F8042CD3F8002D42F0080285
:1048A000C3F8002D70470000184B10B55A69C9B203
:1048B00042F480325A611A6942F001021A615A695F
:1048C00042F480325A6100221A615A615C695C616B
:1048D0001C6944F001041C611A615C6944F4803471
:1048E0005C611C6944F001041C615C69044344F48C
:1048F00080345C611A615A615869014359611969D0
:1049000041F0010119611A6110BD00BF007000582B
:1049100010B50446D8B103680E4A934208D002F19C
:104920007042934204D04FF4A7710B48FDF700FF8B
:10493000237913B9204610F015F9032300202371C1
:1049400001236071A071E071A060237110BD01208E
:10495000FCE700BF00200058381206342DE9F04172
:104960000546FEB00C464FF4FC726846544916F0FA
:10497000E9FF1DB901207EB0BDE8F081002CF9D01F
:104980002B68504A934208D002F17042934204D0FF
:1049900040F28B214C48FDF7CBFE2368B3F5807FB6
:1049A00007D0B3F5007F04D04FF423714648FDF7DC
:1049B000BFFE6368013B012B04D940F28D214248C0
:1049C000FDF7B6FEA3683E2B04D940F28E213E4887
:1049D000FDF7AEFE3D4B1A6822F001021A606168D5
:1049E00001291AD1226842F404121A671A6842F0A7
:1049F00001021A60D3F8802042F0B04242F404125F
:104A0000C3F880202268B2F5807FD3F8842054D187
:104A1000012908D142F01F0207E00229AAD1226829
:104A200042F49012E1E742F4F8520026284DC3F810
:104A300084202B68254F23F002032B607E602B69B6
:104A4000012043F001032B61FFF742FB2E61D4F8F4
:104A50000880AB685DF8382023F4FE4343EA022364
:104A600043F02803AB60382108201602FFF71CFF33
:104A70001121E420FFF718FF0DEBC803D3F80480E1
:104A8000E3204FEA182146F48036FFF70DFF46F089
:104A90002806E3205FFA88F1FFF706FFAE6023687F
:104AA0000020B3F5807F0CBF07230F237B602B68AA
:104AB00043F002032B6068605DE742F4F852A9E717
:104AC000D8C1023400200058381206340060005863
:104AD0000070005870B50D461446064608B901200E
:104AE00070BD002AFBD00368524A934208D002F1FD
:104AF0007042934204D04FF444714F48FDF718FEC2
:104B0000022D04D940F211314B48FDF711FE236804
:104B100033F4403304D040F212314748FDF708FE29
:104B2000022D23681ED033F4403304D040F21631F6
:104B30004148FDF7FDFD2368B3F5803F02D0B3F592
:104B4000003F0FD1A368222B0CD0183B152B04D8A3
:104B50003A4A22FA03F3DA0704D440F21B3136480A
:104B6000FDF7E6FD2368B3F5403F0FD06368222BC5
:104B70000CD0183B152B04D8304A22FA03F3DB077C
:104B800004D440F221312C48FDF7D2FD3379013BAA
:104B9000012B2ED82268B2F5403F45D0B2F5003F38
:104BA0002BD1002D9BD113466168B2F5803F43EABB
:104BB0000103316802D0B2F5003F04D1022D2BD0A1
:104BC000A26843EA0223EDB931681D4AD1F8040412
:104BD00002401A43C1F804243368D3F8042122F4B4
:104BE0008042C3F80421D3F8042242F00102C3F842
:104BF000042202230020337172E7022D14BF1346F2
:104C00000023D1E7012D07D1D1F804080C4A024056
:104C10001A43C1F80428DFE7D1F8042C22F03F0240
:104C20001343C1F8043CD7E7002D7FF458AF134677
:104C3000CAE700BF0020005838120634C31B3C00EE
:104C4000C0C0FCFF032970B506460D46144604D9C2
:104C50004FF472711548FDF76BFD062C04D940F234
:104C6000C9311248FDF764FDF6B1032D08D8DFE81D
:104C700005F002090F150E4B240244F001041C61DB
:104C8000002070BD0A4B240244F001041C62F7E7C7
:104C9000074B240244F001041C63F1E7044B240297
:104CA00044F001041C64EBE70120EAE73812063403
:104CB00000600058F8B50D461446064608B90120B4
:104CC000F8BD002AFBD00368474A934208D002F19E
:104CD0007042934204D040F202414448FDF728FD5F
:104CE000022D04D940F203414048FDF721FD23681D
:104CF000032B04D940F204413C48FDF719FDBDB92E
:104D0000711948793379C0B2022BDAB2D7D110F0D9
:104D1000FB00D4D14A713368276815BBD3F800254E
:104D200022F003023A43C3F8002501234B71C7E781
:104D3000A368092B04D940F207412C48FDF7F8FC81
:104D400063681A0702D1B3F5004F04D34FF48161B1
:104D50002648FDF7EDFC022DD2D1A368062BCFD952
:104D6000ADE7012DD4E9014626D1D3F80029204D25
:104D700022F003023A43C3F80029D3F8C02922F0F5
:104D80000F023243C3F8C029D3F8CC292A4022436A
:104D9000C3F8CC29F21F012A06D8D3F8DC292A400F
:104DA0002243C3F8DC29C0E7092EBED1D3F8DC29A1
:104DB0002A4042EA5402F4E7D3F8002D22F003021D
:104DC0003A43C3F8002DD3F8C02D22F00F0232432E
:104DD000C3F8C02DD3F8CC2D22F4FF4222F07F027D
:104DE0002243C3F8CC2DA0E7002000583812063427
:104DF0000080FFFF70B50C46054608B9012070BD64
:104E00000029FBD00B68013B042B04D940F23E4142
:104E10005248FDF78DFC6369B3F5806F04D340F20F
:104E20003F414E48FDF784FC2369B3F5806F04D3FE
:104E30004FF488614948FDF77BFCE3680F2B04D9E8
:104E400040F241414548FDF773FC6368072B04D9E4
:104E500040F242414148FDF76BFCA368042B04D9A2
:104E600040F243413D48FDF763FCA3690F2B04D991
:104E700040F244413948FDF75BFC2B79002BBDD053
:104E80002A68536843F001035360FFF71FF9064691
:104E9000FFF71CF9801BB0F57A7FAFD82B689A68B2
:104EA000D207F5D562681A602268013A042A11D83F
:104EB000DFE802F0031C2A384600D4E9022142EA66
:104EC00001221A62A26912045A62D4E9042142EA58
:104ED00001429A625A68002022F001025A60D3F817
:104EE000F02342F02002C3F8F02388E7D4E902213E
:104EF00042EA01221A63A26912045A63D4E9042126
:104F000042EA01429A63E5E7D4E9022142EA01223A
:104F10001A64A26912045A64D4E9042142EA0142E3
:104F20009A64D7E7D4E9022142EA01221A65A2690C
:104F300012045A65D4E9042142EA01429A65C9E79C
:104F4000D4E9022142EA01221A66A26912045A66D1
:104F5000D4E9042142EA01429A66BBE738120634DA
:104F60002DE9F041022904460D4616461F46DDF89C
:104F7000188004D94FF4C2611A48FDF7D9FB032EFB
:104F800004D940F211611748FDF7D2FB38F0040351
:104F900004D040F212611348FDF7CAFB1CB9012688
:104FA0003046BDE8F0813A07F9D123686219D3F899
:104FB00004325279012AF2D1DB07F0D53246294674
:104FC0002046FFF7A9FB06460028E8D129462046DF
:104FD00043463A46FFF71BFC29462046FFF742FCB2
:104FE000DEE700BF381206347047704770477047DD
:104FF000036870B5D3F8F86304467204D3F8F0532D
:1050000012D5690410D5D3F8F023002122F4804290
:10501000C3F8F023826842F0040282604FF48042B9
:10502000C3F8FC23FFF7E1FF72050AD56B0508D52D
:105030004FF48062236800212046C3F8FC230FF060
:1050400071FDB00516D5A90514D52368D3F8002540
:10505000520707D5D3F8F02322F40642C3F8F02311
:10506000012262714FF4007200212046C3F8FC2334
:105070000FF068FDF3050AD5E80508D54FF48072F6
:10508000236800212046C3F8FC23FFF7ADFF31045D
:1050900016D52A0414D523680021D3F8F02320461E
:1050A00022F40042C3F8F023A26842F00802A26092
:1050B0004FF40042C3F8FC2304236371FFF796FF0B
:1050C000F3030AD5E80308D54FF4803223680121A1
:1050D0002046C3F8FC23FFF787FF71030AD56A0354
:1050E00008D54FF48022236801212046C3F8FC2311
:1050F0000FF018FDB30316D5A80314D52368D3F811
:105100000029510707D5D3F8F02322F40602C3F88B
:10511000F0230122A2714FF4003201212046C3F88E
:10512000FC230FF00FFD320216D52B0214D5236895
:105130000121D3F8F023204622F40002C3F8F02323
:10514000A26842F01002A2604FF40002C3F8FC23F0
:105150000423A371FFF74AFFF0010AD5E90108D53E
:105160004FF08072236802212046C3F8FC23FFF72A
:105170003BFF72010AD56B0108D54FF080622368AE
:1051800002212046C3F8FC230FF0CCFCB00116D559
:10519000A90114D52368D3F8002D520707D5D3F8F9
:1051A000F02322F00642C3F8F0230122E2714FF00F
:1051B000007202212046C3F8FC230FF0C3FC002E2E
:1051C00016DA002D14DA23680221D3F8F0232046E2
:1051D00022F00042C3F8F023A26842F02002A2604D
:1051E0004FF00042C3F8FC230423E371FFF7FEFEF7
:1051F000700614D5690612D523682046D3F8F0232B
:1052000022F04002C3F8F023A26842F00202A2603A
:105210004022C3F8FC2304232371FFF7E8FEB20603
:1052200014D5AB0612D523682046D3F8F02322F01C
:105230002002C3F8F023A26842F00102A2602022FB
:10524000C3F8FC2304232371FFF7D1FE70BD704720
:10525000704770477047704770477047B54B2DE9EE
:10526000F041D3F890600446B202D3F89480D3F8AA
:105270008050D3F884700DD5A9020BD5D3F88020C7
:1052800022F40012C3F880204FF40012C3F800216A
:10529000FFF7DEFF320715D52B0713D5236803214F
:1052A000D3F80035204613F0040FA24B1EBFD3F8ED
:1052B000802022F00802C3F880200822C3F80021D1
:1052C000FFF7CBFF700715D5690713D523680221B7
:1052D000D3F80035204613F0040F964B1EBFD3F8C9
:1052E000802022F00402C3F880200422C3F80021A9
:1052F000FFF7B3FFB20715D5AB0713D5236801211C
:10530000D3F80035204613F0040F8A4B1EBFD3F8A4
:10531000802022F00202C3F880200222C3F800217C
:10532000FFF79BFFF00715D5E90713D52368002188
:10533000D3F80035204613F0040F7E4B1EBFD3F880
:10534000802022F00102C3F880200122C3F800214E
:10535000FFF783FF320416D52B0414D523680321ED
:10536000D3F80035204613F0040F724B1EBFD3F85C
:10537000802022F40042C3F880204FF40042C3F89A
:105380000021FFF767FF700416D5690414D5236860
:105390000221D3F80035204613F0040F654B1EBFE1
:1053A000D3F8802022F48042C3F880204FF480425A
:1053B000C3F80021FFF74EFFB20416D5AB0414D595
:1053C00023680121D3F80035204613F0040F594B10
:1053D0001EBFD3F8802022F40052C3F880204FF47F
:1053E0000052C3F80021FFF735FFF00416D5E90499
:1053F00014D523680021D3F80035204613F0040F9C
:105400004C4B1EBFD3F8802022F48052C3F880207A
:105410004FF48052C3F80021FFF71CFF320516D568
:105420002B0514D523680321D3F80035204613F04B
:10543000040F404B1EBFD3F8802022F40062C3F853
:1054400080204FF40062C3F80021FFF704FF7005CD
:1054500016D5690514D523680221D3F800352046F6
:1054600013F0040F334B1EBFD3F8802022F4806268
:10547000C3F880204FF48062C3F80021FFF7EBFEF1
:10548000B20516D5AB0514D523680121D3F8003534
:10549000204613F0040F274B1EBFD3F8802022F4C0
:1054A0000072C3F880204FF40072C3F80021FFF7A8
:1054B000D2FEF00516D5E90514D523680021D3F8EE
:1054C0000035204613F0040F1A4B1EBFD3F880207E
:1054D00022F48072C3F880204FF48072C3F8002158
:1054E000FFF7B9FE320615D52B0613D52368032125
:1054F000D3F80035204613F0040F0E4B1EBFD3F82F
:10550000802022F08002C3F880208022C3F800218E
:10551000FFF7A2FE700619D5690617D52368022188
:10552000D3F80035204613F0040F024B18BFD3F810
:10553000802001E0006000581CBF22F04002C3F848
:1055400080204022C3F80021FFF786FEB20615D561
:10555000AB0613D523680121D3F80035204613F09C
:10556000040FB94B1EBFD3F8802022F02002C3F8ED
:1055700080202022C3F80021FFF76EFEF00615D52B
:10558000E90613D523680021D3F80035204613F02F
:10559000040FAD4B1EBFD3F8802022F01002C3F8D9
:1055A00080201022C3F80021FFF756FE720013D5A9
:1055B0006B0011D5A44B2046D3F8802022F0804206
:1055C000C3F880204FF08042C3F80021A36843F461
:1055D0008073A360FFF70BFDB00013D5A90011D5B0
:1055E000994B2046D3F8802022F00052C3F8802047
:1055F0004FF00052C3F80021A36843F40073A36086
:10560000FFF7F5FCF20013D5EB0011D58E4B2046C9
:10561000D3F8802022F08052C3F880204FF08052CF
:10562000C3F80021A36843F48063A360FFF7DFFCA5
:10563000300113D5290111D5834B2046D3F88020A2
:1056400022F00062C3F880204FF00062C3F800210E
:10565000A36843F40063A360FFF7C9FC720113D58C
:105660006B0111D5784B2046D3F8802022F0806260
:10567000C3F880204FF08062C3F80021A36843F490
:105680008053A360FFF7B3FCB00113D5A90111D576
:105690006D4B2046D3F8802022F00072C3F88020A2
:1056A0004FF00072C3F80021A36843F40053A360D5
:1056B000FFF79DFCF20113D5EB0111D5624B20469B
:1056C000D3F8802022F08072C3F880204FF08072DF
:1056D000C3F80021A36843F48043A360FFF787FC6D
:1056E00018F0010F14D0F80712D50121564B2046AF
:1056F000D3F8802022F00102C3F88020C3F80411FF
:10570000A36843F40023A36004232371FFF79FFDE4
:1057100018F0020F15D0B90713D54B4B0121D3F860
:105720008020204622F00202C3F880200222C3F823
:105730000421A36843F48023A36004232371FFF7AB
:1057400086FD18F0040F13D07A0711D53E4B0121C6
:10575000D3F88020204622F00402C3F880200422DF
:10576000C3F80421A36843F40033A360FFF76FFD7F
:1057700018F0080F13D03B0711D5334B0121D3F894
:105780008020204622F00802C3F880200822C3F8B7
:105790000421A36843F48033A360FFF758FD18F099
:1057A000100F13D0F80611D5274B0121D3F8802014
:1057B000204622F01002C3F880201022C3F80421F2
:1057C000A36843F40043A360FFF741FD18F4807F12
:1057D00016D0F90514D51C4B0221D3F880202046A1
:1057E00022F48072C3F880204FF48072C3F8042141
:1057F000A36843F40023A36004232371FFF727FD6C
:1058000018F4007F16D0BA0514D50F4B0221D3F837
:105810008020204622F40072C3F880204FF40072EA
:10582000C3F80421A36843F48023A36004232371F5
:10583000FFF70DFD18F4806F17D07B0515D5024BCF
:105840000221D3F8802001E000600058204622F4B5
:105850008062C3F880204FF48062C3F80421A368FB
:1058600043F40033A360FFF7F2FC18F4006F14D088
:10587000380512D51F4B0221D3F88020204622F490
:105880000062C3F880204FF40062C3F80421A368CB
:1058900043F48033A360FFF7DAFC18F4805F14D080
:1058A000F90412D5134B0221D3F88020204622F4AC
:1058B0008052C3F880204FF48052C3F80421A368BB
:1058C00043F40043A360FFF7C2FCF2030FD5EB03E0
:1058D0000DD5084B2046D3F8802022F48032C3F83F
:1058E00080204FF48032C3F80021FFF7B2FCBDE8FE
:1058F000F08100BF0060005870B50E4614460546A2
:1059000008B9012070BD002AFBD0022904D940F655
:10591000EF614A48FCF70CFF236933F0804304D061
:105920004FF46F614548FCF703FF6368B3F5805F90
:1059300004D340F6F1614148FCF7FAFE40F6FE72EE
:10594000E368013B934204D940F6F2613B48FCF71F
:10595000EFFE40F6FE72A368013B934204D940F685
:10596000F3613648FCF7E4FE2368B3F5805F04D3A7
:1059700040F6F4613148FCF7DBFE2B79022BC0D1F5
:105980003EBB2A682E4BD2F804110B40B3F5804F72
:10599000B7D0D4E90003D2F8041543EA004301F07C
:1059A000F0210B43C2F80435D2F80815D4E90330CE
:1059B00021F09F41034321F4FE01A06821F47F619F
:1059C00043EA004321F00F010B43C2F808350020E1
:1059D00098E7012E17D1D4E900032A6843EA00436F
:1059E000D2F8041901F0F0210B43C2F80439D2F8BF
:1059F0000819D4E9020301F0F02143EA00430B4304
:105A0000C2F80839E3E7022E7FF47BAFD4E9000344
:105A10002A6843EA0043D2F8041D01F0F0210B4349
:105A2000C2F8043DD2F8081DD4E9020301F0F021C8
:105A300043EA00430B43C2F8083DC8E73812063476
:105A40000040FF00022938B505460C4604D940F64F
:105A50003F711A48FCF76CFE6DB32B79022B2AD1EB
:105A60007CB92B68164AD3F804110A40B2F5804F6E
:105A700021D0D3F8082542F00042C3F808250020C1
:105A800038BD012C0DD12B682046D3F82028B2F563
:105A9000004FF5D0D3F8082942F00042C3F8082996
:105AA000EDE7022C07D12A68D2F8083D43F0004305
:105AB000C2F8083DE3E70120E2E700BF38120634F0
:105AC0000040FF00022908B506D940F67E71104853
:105AD000FCF72EFE01200AE00028FBD0036839B94C
